{
    "_format": "hh-sol-artifact-1",
    "contractName": "GreetingCardNFT",
    "sourceName": "contracts/GreetingCardNFT.sol",
    "abi": [
        {
            "inputs": [
                {
                    "internalType": "string",
                    "name": "name",
                    "type": "string"
                },
                {
                    "internalType": "string",
                    "name": "symbol",
                    "type": "string"
                },
                {
                    "internalType": "address",
                    "name": "initialOwner",
                    "type": "address"
                }
            ],
            "stateMutability": "nonpayable",
            "type": "constructor"
        },
        {
            "inputs": [
                {
                    "internalType": "address",
                    "name": "sender",
                    "type": "address"
                },
                {
                    "internalType": "uint256",
                    "name": "tokenId",
                    "type": "uint256"
                },
                {
                    "internalType": "address",
                    "name": "owner",
                    "type": "address"
                }
            ],
            "name": "ERC721IncorrectOwner",
            "type": "error"
        },
        {
            "inputs": [
                {
                    "internalType": "address",
                    "name": "operator",
                    "type": "address"
                },
                {
                    "internalType": "uint256",
                    "name": "tokenId",
                    "type": "uint256"
                }
            ],
            "name": "ERC721InsufficientApproval",
            "type": "error"
        },
        {
            "inputs": [
                {
                    "internalType": "address",
                    "name": "approver",
                    "type": "address"
                }
            ],
            "name": "ERC721InvalidApprover",
            "type": "error"
        },
        {
            "inputs": [
                {
                    "internalType": "address",
                    "name": "operator",
                    "type": "address"
                }
            ],
            "name": "ERC721InvalidOperator",
            "type": "error"
        },
        {
            "inputs": [
                {
                    "internalType": "address",
                    "name": "owner",
                    "type": "address"
                }
            ],
            "name": "ERC721InvalidOwner",
            "type": "error"
        },
        {
            "inputs": [
                {
                    "internalType": "address",
                    "name": "receiver",
                    "type": "address"
                }
            ],
            "name": "ERC721InvalidReceiver",
            "type": "error"
        },
        {
            "inputs": [
                {
                    "internalType": "address",
                    "name": "sender",
                    "type": "address"
                }
            ],
            "name": "ERC721InvalidSender",
            "type": "error"
        },
        {
            "inputs": [
                {
                    "internalType": "uint256",
                    "name": "tokenId",
                    "type": "uint256"
                }
            ],
            "name": "ERC721NonexistentToken",
            "type": "error"
        },
        {
            "inputs": [
                {
                    "internalType": "address",
                    "name": "owner",
                    "type": "address"
                }
            ],
            "name": "OwnableInvalidOwner",
            "type": "error"
        },
        {
            "inputs": [
                {
                    "internalType": "address",
                    "name": "account",
                    "type": "address"
                }
            ],
            "name": "OwnableUnauthorizedAccount",
            "type": "error"
        },
        {
            "anonymous": false,
            "inputs": [
                {
                    "indexed": true,
                    "internalType": "address",
                    "name": "owner",
                    "type": "address"
                },
                {
                    "indexed": true,
                    "internalType": "address",
                    "name": "approved",
                    "type": "address"
                },
                {
                    "indexed": true,
                    "internalType": "uint256",
                    "name": "tokenId",
                    "type": "uint256"
                }
            ],
            "name": "Approval",
            "type": "event"
        },
        {
            "anonymous": false,
            "inputs": [
                {
                    "indexed": true,
                    "internalType": "address",
                    "name": "owner",
                    "type": "address"
                },
                {
                    "indexed": true,
                    "internalType": "address",
                    "name": "operator",
                    "type": "address"
                },
                {
                    "indexed": false,
                    "internalType": "bool",
                    "name": "approved",
                    "type": "bool"
                }
            ],
            "name": "ApprovalForAll",
            "type": "event"
        },
        {
            "anonymous": false,
            "inputs": [
                {
                    "indexed": false,
                    "internalType": "uint256",
                    "name": "_fromTokenId",
                    "type": "uint256"
                },
                {
                    "indexed": false,
                    "internalType": "uint256",
                    "name": "_toTokenId",
                    "type": "uint256"
                }
            ],
            "name": "BatchMetadataUpdate",
            "type": "event"
        },
        {
            "anonymous": false,
            "inputs": [
                {
                    "indexed": false,
                    "internalType": "uint256[]",
                    "name": "tokenIds",
                    "type": "uint256[]"
                },
                {
                    "indexed": false,
                    "internalType": "address",
                    "name": "owner",
                    "type": "address"
                }
            ],
            "name": "BatchMinted",
            "type": "event"
        },
        {
            "anonymous": false,
            "inputs": [
                {
                    "indexed": false,
                    "internalType": "uint256",
                    "name": "tokenId",
                    "type": "uint256"
                },
                {
                    "indexed": false,
                    "internalType": "address",
                    "name": "owner",
                    "type": "address"
                },
                {
                    "indexed": false,
                    "internalType": "string",
                    "name": "tokenURI",
                    "type": "string"
                }
            ],
            "name": "GreetingCardMinted",
            "type": "event"
        },
        {
            "anonymous": false,
            "inputs": [
                {
                    "indexed": false,
                    "internalType": "uint256",
                    "name": "_tokenId",
                    "type": "uint256"
                }
            ],
            "name": "MetadataUpdate",
            "type": "event"
        },
        {
            "anonymous": false,
            "inputs": [
                {
                    "indexed": true,
                    "internalType": "address",
                    "name": "previousOwner",
                    "type": "address"
                },
                {
                    "indexed": true,
                    "internalType": "address",
                    "name": "newOwner",
                    "type": "address"
                }
            ],
            "name": "OwnershipTransferred",
            "type": "event"
        },
        {
            "anonymous": false,
            "inputs": [
                {
                    "indexed": true,
                    "internalType": "address",
                    "name": "from",
                    "type": "address"
                },
                {
                    "indexed": true,
                    "internalType": "address",
                    "name": "to",
                    "type": "address"
                },
                {
                    "indexed": true,
                    "internalType": "uint256",
                    "name": "tokenId",
                    "type": "uint256"
                }
            ],
            "name": "Transfer",
            "type": "event"
        },
        {
            "inputs": [],
            "name": "MAX_SUPPLY",
            "outputs": [
                {
                    "internalType": "uint256",
                    "name": "",
                    "type": "uint256"
                }
            ],
            "stateMutability": "view",
            "type": "function"
        },
        {
            "inputs": [],
            "name": "MINT_PRICE",
            "outputs": [
                {
                    "internalType": "uint256",
                    "name": "",
                    "type": "uint256"
                }
            ],
            "stateMutability": "view",
            "type": "function"
        },
        {
            "inputs": [
                {
                    "internalType": "address",
                    "name": "to",
                    "type": "address"
                },
                {
                    "internalType": "uint256",
                    "name": "tokenId",
                    "type": "uint256"
                }
            ],
            "name": "approve",
            "outputs": [],
            "stateMutability": "nonpayable",
            "type": "function"
        },
        {
            "inputs": [
                {
                    "internalType": "address",
                    "name": "owner",
                    "type": "address"
                }
            ],
            "name": "balanceOf",
            "outputs": [
                {
                    "internalType": "uint256",
                    "name": "",
                    "type": "uint256"
                }
            ],
            "stateMutability": "view",
            "type": "function"
        },
        {
            "inputs": [
                {
                    "internalType": "string[]",
                    "name": "tokenURIs",
                    "type": "string[]"
                },
                {
                    "internalType": "address",
                    "name": "recipient",
                    "type": "address"
                }
            ],
            "name": "batchMintGreetingCards",
            "outputs": [
                {
                    "internalType": "uint256[]",
                    "name": "",
                    "type": "uint256[]"
                }
            ],
            "stateMutability": "payable",
            "type": "function"
        },
        {
            "inputs": [
                {
                    "internalType": "uint256",
                    "name": "tokenId",
                    "type": "uint256"
                }
            ],
            "name": "getApproved",
            "outputs": [
                {
                    "internalType": "address",
                    "name": "",
                    "type": "address"
                }
            ],
            "stateMutability": "view",
            "type": "function"
        },
        {
            "inputs": [
                {
                    "internalType": "address",
                    "name": "owner",
                    "type": "address"
                },
                {
                    "internalType": "address",
                    "name": "operator",
                    "type": "address"
                }
            ],
            "name": "isApprovedForAll",
            "outputs": [
                {
                    "internalType": "bool",
                    "name": "",
                    "type": "bool"
                }
            ],
            "stateMutability": "view",
            "type": "function"
        },
        {
            "inputs": [
                {
                    "internalType": "string",
                    "name": "uri",
                    "type": "string"
                },
                {
                    "internalType": "address",
                    "name": "recipient",
                    "type": "address"
                }
            ],
            "name": "mintGreetingCard",
            "outputs": [
                {
                    "internalType": "uint256",
                    "name": "",
                    "type": "uint256"
                }
            ],
            "stateMutability": "payable",
            "type": "function"
        },
        {
            "inputs": [],
            "name": "name",
            "outputs": [
                {
                    "internalType": "string",
                    "name": "",
                    "type": "string"
                }
            ],
            "stateMutability": "view",
            "type": "function"
        },
        {
            "inputs": [],
            "name": "owner",
            "outputs": [
                {
                    "internalType": "address",
                    "name": "",
                    "type": "address"
                }
            ],
            "stateMutability": "view",
            "type": "function"
        },
        {
            "inputs": [
                {
                    "internalType": "uint256",
                    "name": "tokenId",
                    "type": "uint256"
                }
            ],
            "name": "ownerOf",
            "outputs": [
                {
                    "internalType": "address",
                    "name": "",
                    "type": "address"
                }
            ],
            "stateMutability": "view",
            "type": "function"
        },
        {
            "inputs": [],
            "name": "renounceOwnership",
            "outputs": [],
            "stateMutability": "nonpayable",
            "type": "function"
        },
        {
            "inputs": [
                {
                    "internalType": "address",
                    "name": "from",
                    "type": "address"
                },
                {
                    "internalType": "address",
                    "name": "to",
                    "type": "address"
                },
                {
                    "internalType": "uint256",
                    "name": "tokenId",
                    "type": "uint256"
                }
            ],
            "name": "safeTransferFrom",
            "outputs": [],
            "stateMutability": "nonpayable",
            "type": "function"
        },
        {
            "inputs": [
                {
                    "internalType": "address",
                    "name": "from",
                    "type": "address"
                },
                {
                    "internalType": "address",
                    "name": "to",
                    "type": "address"
                },
                {
                    "internalType": "uint256",
                    "name": "tokenId",
                    "type": "uint256"
                },
                {
                    "internalType": "bytes",
                    "name": "data",
                    "type": "bytes"
                }
            ],
            "name": "safeTransferFrom",
            "outputs": [],
            "stateMutability": "nonpayable",
            "type": "function"
        },
        {
            "inputs": [
                {
                    "internalType": "address",
                    "name": "operator",
                    "type": "address"
                },
                {
                    "internalType": "bool",
                    "name": "approved",
                    "type": "bool"
                }
            ],
            "name": "setApprovalForAll",
            "outputs": [],
            "stateMutability": "nonpayable",
            "type": "function"
        },
        {
            "inputs": [
                {
                    "internalType": "string",
                    "name": "baseURI",
                    "type": "string"
                }
            ],
            "name": "setBaseURI",
            "outputs": [],
            "stateMutability": "nonpayable",
            "type": "function"
        },
        {
            "inputs": [
                {
                    "internalType": "bytes4",
                    "name": "interfaceId",
                    "type": "bytes4"
                }
            ],
            "name": "supportsInterface",
            "outputs": [
                {
                    "internalType": "bool",
                    "name": "",
                    "type": "bool"
                }
            ],
            "stateMutability": "view",
            "type": "function"
        },
        {
            "inputs": [],
            "name": "symbol",
            "outputs": [
                {
                    "internalType": "string",
                    "name": "",
                    "type": "string"
                }
            ],
            "stateMutability": "view",
            "type": "function"
        },
        {
            "inputs": [
                {
                    "internalType": "uint256",
                    "name": "tokenId",
                    "type": "uint256"
                }
            ],
            "name": "tokenURI",
            "outputs": [
                {
                    "internalType": "string",
                    "name": "",
                    "type": "string"
                }
            ],
            "stateMutability": "view",
            "type": "function"
        },
        {
            "inputs": [
                {
                    "internalType": "address",
                    "name": "from",
                    "type": "address"
                },
                {
                    "internalType": "address",
                    "name": "to",
                    "type": "address"
                },
                {
                    "internalType": "uint256",
                    "name": "tokenId",
                    "type": "uint256"
                }
            ],
            "name": "transferFrom",
            "outputs": [],
            "stateMutability": "nonpayable",
            "type": "function"
        },
        {
            "inputs": [
                {
                    "internalType": "address",
                    "name": "newOwner",
                    "type": "address"
                }
            ],
            "name": "transferOwnership",
            "outputs": [],
            "stateMutability": "nonpayable",
            "type": "function"
        },
        {
            "inputs": [],
            "name": "withdraw",
            "outputs": [],
            "stateMutability": "nonpayable",
            "type": "function"
        }
    ],
    "bytecode": "0x60806040523480156200001157600080fd5b5060405162001f0f38038062001f0f8339810160408190526200003491620001b2565b8083836000620000458382620002ce565b506001620000548282620002ce565b5050506001600160a01b0381166200008657604051631e4fbdf760e01b81526000600482015260240160405180910390fd5b62000091816200009b565b505050506200039a565b600780546001600160a01b038381166001600160a01b0319831681179093556040519116919082907f8be0079c531659141344cd1fd0a4f28419497f9722a3daafe3b4186f6b6457e090600090a35050565b634e487b7160e01b600052604160045260246000fd5b600082601f8301126200011557600080fd5b81516001600160401b0380821115620001325762000132620000ed565b604051601f8301601f19908116603f011681019082821181831017156200015d576200015d620000ed565b816040528381526020925086838588010111156200017a57600080fd5b600091505b838210156200019e57858201830151818301840152908201906200017f565b600093810190920192909252949350505050565b600080600060608486031215620001c857600080fd5b83516001600160401b0380821115620001e057600080fd5b620001ee8783880162000103565b945060208601519150808211156200020557600080fd5b50620002148682870162000103565b604086015190935090506001600160a01b03811681146200023457600080fd5b809150509250925092565b600181811c908216806200025457607f821691505b6020821081036200027557634e487b7160e01b600052602260045260246000fd5b50919050565b601f821115620002c957600081815260208120601f850160051c81016020861015620002a45750805b601f850160051c820191505b81811015620002c557828155600101620002b0565b5050505b505050565b81516001600160401b03811115620002ea57620002ea620000ed565b6200030281620002fb84546200023f565b846200027b565b602080601f8311600181146200033a5760008415620003215750858301515b600019600386901b1c1916600185901b178555620002c5565b600085815260208120601f198616915b828110156200036b578886015182559484019460019091019084016200034a565b50858210156200038a5787850151600019600388901b60f8161c191681555b5050505050600190811b01905550565b611b6580620003aa6000396000f3fe6080604052600436106101355760003560e01c8063715018a6116100ab578063b88d4fde1161006f578063b88d4fde1461033f578063c002d23d1461035f578063c87b56dd14610379578063d071bd8714610399578063e985e9c5146103b9578063f2fde38b146103d957600080fd5b8063715018a6146102c45780638da5cb5b146102d957806395d89b41146102f7578063a22cb4651461030c578063b56cc27c1461032c57600080fd5b806332cb6b0c116100fd57806332cb6b0c1461020b5780633ccfd60b1461022f57806342842e0e1461024457806355f804b3146102645780636352211e1461028457806370a08231146102a457600080fd5b806301ffc9a71461013a57806306fdde031461016f578063081812fc14610191578063095ea7b3146101c957806323b872dd146101eb575b600080fd5b34801561014657600080fd5b5061015a61015536600461141d565b6103f9565b60405190151581526020015b60405180910390f35b34801561017b57600080fd5b5061018461040a565b604051610166919061148a565b34801561019d57600080fd5b506101b16101ac36600461149d565b61049c565b6040516001600160a01b039091168152602001610166565b3480156101d557600080fd5b506101e96101e43660046114d2565b6104c5565b005b3480156101f757600080fd5b506101e96102063660046114fc565b6104d4565b34801561021757600080fd5b5061022161271081565b604051908152602001610166565b34801561023b57600080fd5b506101e9610564565b34801561025057600080fd5b506101e961025f3660046114fc565b61065b565b34801561027057600080fd5b506101e961027f3660046115f7565b61067b565b34801561029057600080fd5b506101b161029f36600461149d565b61068f565b3480156102b057600080fd5b506102216102bf36600461162c565b61069a565b3480156102d057600080fd5b506101e96106e2565b3480156102e557600080fd5b506007546001600160a01b03166101b1565b34801561030357600080fd5b506101846106f6565b34801561031857600080fd5b506101e9610327366004611647565b610705565b61022161033a366004611683565b610710565b34801561034b57600080fd5b506101e961035a3660046116d1565b610815565b34801561036b57600080fd5b5061022165b5e620f4800081565b34801561038557600080fd5b5061018461039436600461149d565b61082d565b6103ac6103a736600461174d565b610838565b604051610166919061185d565b3480156103c557600080fd5b5061015a6103d4366004611870565b6109f9565b3480156103e557600080fd5b506101e96103f436600461162c565b610a27565b600061040482610a65565b92915050565b6060600080546104199061189a565b80601f01602080910402602001604051908101604052809291908181526020018280546104459061189a565b80156104925780601f1061046757610100808354040283529160200191610492565b820191906000526020600020905b81548152906001019060200180831161047557829003601f168201915b5050505050905090565b60006104a782610a8a565b506000828152600460205260409020546001600160a01b0316610404565b6104d0828233610ac3565b5050565b6001600160a01b03821661050357604051633250574960e11b8152600060048201526024015b60405180910390fd5b6000610510838333610ad0565b9050836001600160a01b0316816001600160a01b03161461055e576040516364283d7b60e01b81526001600160a01b03808616600483015260248201849052821660448201526064016104fa565b50505050565b61056c610bc9565b47806105b35760405162461bcd60e51b81526020600482015260166024820152754e6f2062616c616e636520746f20776974686472617760501b60448201526064016104fa565b60006105c76007546001600160a01b031690565b6001600160a01b03168260405160006040518083038185875af1925050503d8060008114610611576040519150601f19603f3d011682016040523d82523d6000602084013e610616565b606091505b50509050806104d05760405162461bcd60e51b815260206004820152601160248201527015da5d1a191c985dd85b0819985a5b1959607a1b60448201526064016104fa565b61067683838360405180602001604052806000815250610815565b505050565b610683610bc9565b60096104d0828261191a565b600061040482610a8a565b60006001600160a01b0382166106c6576040516322718ad960e21b8152600060048201526024016104fa565b506001600160a01b031660009081526003602052604090205490565b6106ea610bc9565b6106f46000610bf6565b565b6060600180546104199061189a565b6104d0338383610c48565b600065b5e620f4800034101561075f5760405162461bcd60e51b8152602060048201526014602482015273125b9cdd59999a58da595b9d081c185e5b595b9d60621b60448201526064016104fa565b612710600854106107a75760405162461bcd60e51b815260206004820152601260248201527113585e081cdd5c1c1b1e481c995858da195960721b60448201526064016104fa565b600880549060006107b7836119f0565b90915550506008546107c98382610ce7565b6107d38185610d01565b7fdf61e7bf9ed9d52855ea9971f04878ee787bbe2bcbae90f361556023b3a13d2781848660405161080693929190611a09565b60405180910390a19392505050565b6108208484846104d4565b61055e3385858585610d51565b606061040482610e7c565b60606000835165b5e620f4800061084f9190611a3c565b9050803410156108985760405162461bcd60e51b8152602060048201526014602482015273125b9cdd59999a58da595b9d081c185e5b595b9d60621b60448201526064016104fa565b61271084516008546108aa9190611a53565b11156108ed5760405162461bcd60e51b815260206004820152601260248201527145786365656473206d617820737570706c7960701b60448201526064016104fa565b6000845167ffffffffffffffff81111561090957610909611538565b604051908082528060200260200182016040528015610932578160200160208202803683370190505b50905060005b85518110156109b75760088054906000610951836119f0565b90915550506008546109638682610ce7565b6109868188848151811061097957610979611a66565b6020026020010151610d01565b8083838151811061099957610999611a66565b602090810291909101015250806109af816119f0565b915050610938565b507f03594fecb8a9aaa7406dd20a32bce98ef745336eb214761b085e7c924b71bda681856040516109e9929190611a7c565b60405180910390a1949350505050565b6001600160a01b03918216600090815260056020908152604080832093909416825291909152205460ff1690565b610a2f610bc9565b6001600160a01b038116610a5957604051631e4fbdf760e01b8152600060048201526024016104fa565b610a6281610bf6565b50565b60006001600160e01b03198216632483248360e11b1480610404575061040482610f8d565b6000818152600260205260408120546001600160a01b03168061040457604051637e27328960e01b8152600481018490526024016104fa565b6106768383836001610fdd565b6000828152600260205260408120546001600160a01b0390811690831615610afd57610afd8184866110e3565b6001600160a01b03811615610b3b57610b1a600085600080610fdd565b6001600160a01b038116600090815260036020526040902080546000190190555b6001600160a01b03851615610b6a576001600160a01b0385166000908152600360205260409020805460010190555b60008481526002602052604080822080546001600160a01b0319166001600160a01b0389811691821790925591518793918516917fddf252ad1be2c89b69c2b068fc378daa952ba7f163c4a11628f55a4df523b3ef91a4949350505050565b6007546001600160a01b031633146106f45760405163118cdaa760e01b81523360048201526024016104fa565b600780546001600160a01b038381166001600160a01b0319831681179093556040519116919082907f8be0079c531659141344cd1fd0a4f28419497f9722a3daafe3b4186f6b6457e090600090a35050565b6001600160a01b038216610c7a57604051630b61174360e31b81526001600160a01b03831660048201526024016104fa565b6001600160a01b03838116600081815260056020908152604080832094871680845294825291829020805460ff191686151590811790915591519182527f17307eab39ab6107e8899845ad3d59bd9653f200f220920489ca2b5937696c31910160405180910390a3505050565b6104d0828260405180602001604052806000815250611147565b6000828152600660205260409020610d19828261191a565b506040518281527ff8e1a15aba9398e019f0b49df1a4fde98ee17ae345cb5f6b5e2c27f5033e8ce79060200160405180910390a15050565b6001600160a01b0383163b15610e7557604051630a85bd0160e11b81526001600160a01b0384169063150b7a0290610d93908890889087908790600401611aa6565b6020604051808303816000875af1925050508015610dce575060408051601f3d908101601f19168201909252610dcb91810190611ae3565b60015b610e37573d808015610dfc576040519150601f19603f3d011682016040523d82523d6000602084013e610e01565b606091505b508051600003610e2f57604051633250574960e11b81526001600160a01b03851660048201526024016104fa565b805160208201fd5b6001600160e01b03198116630a85bd0160e11b14610e7357604051633250574960e11b81526001600160a01b03851660048201526024016104fa565b505b5050505050565b6060610e8782610a8a565b5060008281526006602052604081208054610ea19061189a565b80601f0160208091040260200160405190810160405280929190818152602001828054610ecd9061189a565b8015610f1a5780601f10610eef57610100808354040283529160200191610f1a565b820191906000526020600020905b815481529060010190602001808311610efd57829003601f168201915b505050505090506000610f3860408051602081019091526000815290565b90508051600003610f4a575092915050565b815115610f7c578082604051602001610f64929190611b00565b60405160208183030381529060405292505050919050565b610f858461115f565b949350505050565b60006001600160e01b031982166380ac58cd60e01b1480610fbe57506001600160e01b03198216635b5e139f60e01b145b8061040457506301ffc9a760e01b6001600160e01b0319831614610404565b8080610ff157506001600160a01b03821615155b156110b357600061100184610a8a565b90506001600160a01b0383161580159061102d5750826001600160a01b0316816001600160a01b031614155b8015611040575061103e81846109f9565b155b156110695760405163a9fbf51f60e01b81526001600160a01b03841660048201526024016104fa565b81156110b15783856001600160a01b0316826001600160a01b03167f8c5be1e5ebec7d5bd14f71427d1e84f3dd0314c0f7b2291e5b200ac8c7c3b92560405160405180910390a45b505b5050600090815260046020526040902080546001600160a01b0319166001600160a01b0392909216919091179055565b6110ee8383836111d4565b610676576001600160a01b03831661111c57604051637e27328960e01b8152600481018290526024016104fa565b60405163177e802f60e01b81526001600160a01b0383166004820152602481018290526044016104fa565b6111518383611237565b610676336000858585610d51565b606061116a82610a8a565b50600061118260408051602081019091526000815290565b905060008151116111a257604051806020016040528060008152506111cd565b806111ac8461129c565b6040516020016111bd929190611b00565b6040516020818303038152906040525b9392505050565b60006001600160a01b03831615801590610f855750826001600160a01b0316846001600160a01b0316148061120e575061120e84846109f9565b80610f855750506000908152600460205260409020546001600160a01b03908116911614919050565b6001600160a01b03821661126157604051633250574960e11b8152600060048201526024016104fa565b600061126f83836000610ad0565b90506001600160a01b03811615610676576040516339e3563760e11b8152600060048201526024016104fa565b606060006112a98361132f565b600101905060008167ffffffffffffffff8111156112c9576112c9611538565b6040519080825280601f01601f1916602001820160405280156112f3576020820181803683370190505b5090508181016020015b600019016f181899199a1a9b1b9c1cb0b131b232b360811b600a86061a8153600a85049450846112fd57509392505050565b60008072184f03e93ff9f4daa797ed6e38ed64bf6a1f0160401b831061136e5772184f03e93ff9f4daa797ed6e38ed64bf6a1f0160401b830492506040015b6d04ee2d6d415b85acef8100000000831061139a576d04ee2d6d415b85acef8100000000830492506020015b662386f26fc1000083106113b857662386f26fc10000830492506010015b6305f5e10083106113d0576305f5e100830492506008015b61271083106113e457612710830492506004015b606483106113f6576064830492506002015b600a83106104045760010192915050565b6001600160e01b031981168114610a6257600080fd5b60006020828403121561142f57600080fd5b81356111cd81611407565b60005b8381101561145557818101518382015260200161143d565b50506000910152565b6000815180845261147681602086016020860161143a565b601f01601f19169290920160200192915050565b6020815260006111cd602083018461145e565b6000602082840312156114af57600080fd5b5035919050565b80356001600160a01b03811681146114cd57600080fd5b919050565b600080604083850312156114e557600080fd5b6114ee836114b6565b946020939093013593505050565b60008060006060848603121561151157600080fd5b61151a846114b6565b9250611528602085016114b6565b9150604084013590509250925092565b634e487b7160e01b600052604160045260246000fd5b604051601f8201601f1916810167ffffffffffffffff8111828210171561157757611577611538565b604052919050565b600067ffffffffffffffff83111561159957611599611538565b6115ac601f8401601f191660200161154e565b90508281528383830111156115c057600080fd5b828260208301376000602084830101529392505050565b600082601f8301126115e857600080fd5b6111cd8383356020850161157f565b60006020828403121561160957600080fd5b813567ffffffffffffffff81111561162057600080fd5b610f85848285016115d7565b60006020828403121561163e57600080fd5b6111cd826114b6565b6000806040838503121561165a57600080fd5b611663836114b6565b91506020830135801515811461167857600080fd5b809150509250929050565b6000806040838503121561169657600080fd5b823567ffffffffffffffff8111156116ad57600080fd5b6116b9858286016115d7565b9250506116c8602084016114b6565b90509250929050565b600080600080608085870312156116e757600080fd5b6116f0856114b6565b93506116fe602086016114b6565b925060408501359150606085013567ffffffffffffffff81111561172157600080fd5b8501601f8101871361173257600080fd5b6117418782356020840161157f565b91505092959194509250565b6000806040838503121561176057600080fd5b823567ffffffffffffffff8082111561177857600080fd5b818501915085601f83011261178c57600080fd5b81356020828211156117a0576117a0611538565b8160051b6117af82820161154e565b928352848101820192828101908a8511156117c957600080fd5b83870192505b84831015611805578235868111156117e75760008081fd5b6117f58c86838b01016115d7565b83525091830191908301906117cf565b97506118159150508782016114b6565b9450505050509250929050565b600081518084526020808501945080840160005b8381101561185257815187529582019590820190600101611836565b509495945050505050565b6020815260006111cd6020830184611822565b6000806040838503121561188357600080fd5b61188c836114b6565b91506116c8602084016114b6565b600181811c908216806118ae57607f821691505b6020821081036118ce57634e487b7160e01b600052602260045260246000fd5b50919050565b601f82111561067657600081815260208120601f850160051c810160208610156118fb5750805b601f850160051c820191505b81811015610e7357828155600101611907565b815167ffffffffffffffff81111561193457611934611538565b61194881611942845461189a565b846118d4565b602080601f83116001811461197d57600084156119655750858301515b600019600386901b1c1916600185901b178555610e73565b600085815260208120601f198616915b828110156119ac5788860151825594840194600190910190840161198d565b50858210156119ca5787850151600019600388901b60f8161c191681555b5050505050600190811b01905550565b634e487b7160e01b600052601160045260246000fd5b600060018201611a0257611a026119da565b5060010190565b8381526001600160a01b0383166020820152606060408201819052600090611a339083018461145e565b95945050505050565b8082028115828204841417610404576104046119da565b80820180821115610404576104046119da565b634e487b7160e01b600052603260045260246000fd5b604081526000611a8f6040830185611822565b905060018060a01b03831660208301529392505050565b6001600160a01b0385811682528416602082015260408101839052608060608201819052600090611ad99083018461145e565b9695505050505050565b600060208284031215611af557600080fd5b81516111cd81611407565b60008351611b1281846020880161143a565b835190830190611b2681836020880161143a565b0194935050505056fea2646970667358221220a6c43385543052b4b0b5f1fa1f015101a1f8294af11ad43739e09bedd0762ac264736f6c63430008140033",
    "linkReferences": {},
    "deployedLinkReferences": {}
}