{
  "_format": "hh-sol-artifact-1",
  "contractName": "GreetingCardNFT",
  "sourceName": "contracts/GreetingCardNFT.sol",
  "abi": [
    {
      "inputs": [
        {
          "internalType": "string",
          "name": "",
          "type": "string"
        },
        {
          "internalType": "string",
          "name": "",
          "type": "string"
        },
        {
          "internalType": "address",
          "name": "",
          "type": "address"
        },
        {
          "internalType": "address",
          "name": "",
          "type": "address"
        }
      ],
      "stateMutability": "nonpayable",
      "type": "constructor"
    },
    {
      "inputs": [
        {
          "internalType": "string",
          "name": "",
          "type": "string"
        },
        {
          "internalType": "address",
          "name": "",
          "type": "address"
        }
      ],
      "name": "mintGreetingCard",
      "outputs": [
        {
          "internalType": "uint256",
          "name": "",
          "type": "uint256"
        }
      ],
      "stateMutability": "payable",
      "type": "function"
    }
  ],
  "bytecode": "0x608060405234801561001057600080fd5b506040516102ab3803806102ab83398101604081905261002f91610112565b50505050610196565b634e487b7160e01b600052604160045260246000fd5b600082601f83011261005f57600080fd5b81516001600160401b038082111561007957610079610038565b604051601f8301601f19908116603f011681019082821181831017156100a1576100a1610038565b81604052838152602092508660208588010111156100be57600080fd5b600091505b838210156100e057858201830151818301840152908201906100c3565b6000602085830101528094505050505092915050565b80516001600160a01b038116811461010d57600080fd5b919050565b6000806000806080858703121561012857600080fd5b84516001600160401b038082111561013f57600080fd5b61014b8883890161004e565b9550602087015191508082111561016157600080fd5b5061016e8782880161004e565b93505061017d604086016100f6565b915061018b606086016100f6565b905092959194509250565b610106806101a56000396000f3fe608060405260043610601c5760003560e01c8063b56cc27c146021575b600080fd5b6035602c3660046047565b60009392505050565b60405190815260200160405180910390f35b600080600060408486031215605b57600080fd5b833567ffffffffffffffff80821115607257600080fd5b818601915086601f830112608557600080fd5b813581811115609357600080fd5b87602082850101111560a457600080fd5b602092830195509350508401356001600160a01b038116811460c557600080fd5b80915050925092509256fea2646970667358221220bb6543e95d6fd361bfe7b42b47a659c58b848f7c7004729271336ac53f0158b864736f6c63430008180033",
  "linkReferences": {},
  "deployedLinkReferences": {}
}