{
  "_format": "hh-sol-artifact-1",
  "contractName": "GreetingCardNFT",
  "sourceName": "contracts/GreetingCardNFT.sol",
  "abi": [
    {
      "inputs": [
        {
          "internalType": "string",
          "name": "name_",
          "type": "string"
        },
        {
          "internalType": "string",
          "name": "symbol_",
          "type": "string"
        },
        {
          "internalType": "address",
          "name": "initialOwner",
          "type": "address"
        },
        {
          "internalType": "address",
          "name": "usdc_",
          "type": "address"
        }
      ],
      "stateMutability": "nonpayable",
      "type": "constructor"
    },
    {
      "anonymous": false,
      "inputs": [
        {
          "indexed": true,
          "internalType": "address",
          "name": "owner",
          "type": "address"
        },
        {
          "indexed": true,
          "internalType": "address",
          "name": "approved",
          "type": "address"
        },
        {
          "indexed": true,
          "internalType": "uint256",
          "name": "tokenId",
          "type": "uint256"
        }
      ],
      "name": "Approval",
      "type": "event"
    },
    {
      "anonymous": false,
      "inputs": [
        {
          "indexed": true,
          "internalType": "address",
          "name": "owner",
          "type": "address"
        },
        {
          "indexed": true,
          "internalType": "address",
          "name": "operator",
          "type": "address"
        },
        {
          "indexed": false,
          "internalType": "bool",
          "name": "approved",
          "type": "bool"
        }
      ],
      "name": "ApprovalForAll",
      "type": "event"
    },
    {
      "anonymous": false,
      "inputs": [
        {
          "indexed": false,
          "internalType": "uint256",
          "name": "_fromTokenId",
          "type": "uint256"
        },
        {
          "indexed": false,
          "internalType": "uint256",
          "name": "_toTokenId",
          "type": "uint256"
        }
      ],
      "name": "BatchMetadataUpdate",
      "type": "event"
    },
    {
      "anonymous": false,
      "inputs": [
        {
          "indexed": true,
          "internalType": "uint256",
          "name": "tokenId",
          "type": "uint256"
        },
        {
          "indexed": true,
          "internalType": "address",
          "name": "sender",
          "type": "address"
        },
        {
          "indexed": true,
          "internalType": "address",
          "name": "recipient",
          "type": "address"
        },
        {
          "indexed": false,
          "internalType": "string",
          "name": "tokenURI",
          "type": "string"
        }
      ],
      "name": "CardMinted",
      "type": "event"
    },
    {
      "anonymous": false,
      "inputs": [
        {
          "indexed": false,
          "internalType": "uint256",
          "name": "_tokenId",
          "type": "uint256"
        }
      ],
      "name": "MetadataUpdate",
      "type": "event"
    },
    {
      "anonymous": false,
      "inputs": [
        {
          "indexed": true,
          "internalType": "address",
          "name": "previousOwner",
          "type": "address"
        },
        {
          "indexed": true,
          "internalType": "address",
          "name": "newOwner",
          "type": "address"
        }
      ],
      "name": "OwnershipTransferred",
      "type": "event"
    },
    {
      "anonymous": false,
      "inputs": [
        {
          "indexed": false,
          "internalType": "address",
          "name": "account",
          "type": "address"
        }
      ],
      "name": "Paused",
      "type": "event"
    },
    {
      "anonymous": false,
      "inputs": [
        {
          "indexed": true,
          "internalType": "address",
          "name": "from",
          "type": "address"
        },
        {
          "indexed": true,
          "internalType": "address",
          "name": "to",
          "type": "address"
        },
        {
          "indexed": true,
          "internalType": "uint256",
          "name": "tokenId",
          "type": "uint256"
        }
      ],
      "name": "Transfer",
      "type": "event"
    },
    {
      "anonymous": false,
      "inputs": [
        {
          "indexed": false,
          "internalType": "address",
          "name": "account",
          "type": "address"
        }
      ],
      "name": "Unpaused",
      "type": "event"
    },
    {
      "inputs": [],
      "name": "ONE_USDC",
      "outputs": [
        {
          "internalType": "uint256",
          "name": "",
          "type": "uint256"
        }
      ],
      "stateMutability": "view",
      "type": "function"
    },
    {
      "inputs": [
        {
          "internalType": "address",
          "name": "to",
          "type": "address"
        },
        {
          "internalType": "uint256",
          "name": "tokenId",
          "type": "uint256"
        }
      ],
      "name": "approve",
      "outputs": [],
      "stateMutability": "nonpayable",
      "type": "function"
    },
    {
      "inputs": [
        {
          "internalType": "address",
          "name": "owner",
          "type": "address"
        }
      ],
      "name": "balanceOf",
      "outputs": [
        {
          "internalType": "uint256",
          "name": "",
          "type": "uint256"
        }
      ],
      "stateMutability": "view",
      "type": "function"
    },
    {
      "inputs": [
        {
          "internalType": "uint256",
          "name": "",
          "type": "uint256"
        }
      ],
      "name": "cardRecipient",
      "outputs": [
        {
          "internalType": "address",
          "name": "",
          "type": "address"
        }
      ],
      "stateMutability": "view",
      "type": "function"
    },
    {
      "inputs": [
        {
          "internalType": "uint256",
          "name": "tokenId",
          "type": "uint256"
        }
      ],
      "name": "getApproved",
      "outputs": [
        {
          "internalType": "address",
          "name": "",
          "type": "address"
        }
      ],
      "stateMutability": "view",
      "type": "function"
    },
    {
      "inputs": [
        {
          "internalType": "uint256",
          "name": "tokenId",
          "type": "uint256"
        }
      ],
      "name": "getCardDetails",
      "outputs": [
        {
          "internalType": "address",
          "name": "sender",
          "type": "address"
        },
        {
          "internalType": "address",
          "name": "recipient",
          "type": "address"
        },
        {
          "internalType": "address",
          "name": "currentOwner",
          "type": "address"
        },
        {
          "internalType": "string",
          "name": "uri",
          "type": "string"
        }
      ],
      "stateMutability": "view",
      "type": "function"
    },
    {
      "inputs": [
        {
          "internalType": "address",
          "name": "recipient",
          "type": "address"
        }
      ],
      "name": "getCardsReceived",
      "outputs": [
        {
          "internalType": "uint256[]",
          "name": "",
          "type": "uint256[]"
        }
      ],
      "stateMutability": "view",
      "type": "function"
    },
    {
      "inputs": [
        {
          "internalType": "address",
          "name": "sender",
          "type": "address"
        }
      ],
      "name": "getCardsSent",
      "outputs": [
        {
          "internalType": "uint256[]",
          "name": "",
          "type": "uint256[]"
        }
      ],
      "stateMutability": "view",
      "type": "function"
    },
    {
      "inputs": [
        {
          "internalType": "address",
          "name": "owner",
          "type": "address"
        },
        {
          "internalType": "address",
          "name": "operator",
          "type": "address"
        }
      ],
      "name": "isApprovedForAll",
      "outputs": [
        {
          "internalType": "bool",
          "name": "",
          "type": "bool"
        }
      ],
      "stateMutability": "view",
      "type": "function"
    },
    {
      "inputs": [
        {
          "internalType": "string",
          "name": "uri",
          "type": "string"
        },
        {
          "internalType": "address",
          "name": "recipient",
          "type": "address"
        }
      ],
      "name": "mintGreetingCard",
      "outputs": [
        {
          "internalType": "uint256",
          "name": "",
          "type": "uint256"
        }
      ],
      "stateMutability": "nonpayable",
      "type": "function"
    },
    {
      "inputs": [],
      "name": "name",
      "outputs": [
        {
          "internalType": "string",
          "name": "",
          "type": "string"
        }
      ],
      "stateMutability": "view",
      "type": "function"
    },
    {
      "inputs": [],
      "name": "owner",
      "outputs": [
        {
          "internalType": "address",
          "name": "",
          "type": "address"
        }
      ],
      "stateMutability": "view",
      "type": "function"
    },
    {
      "inputs": [
        {
          "internalType": "string",
          "name": "uri",
          "type": "string"
        },
        {
          "internalType": "address",
          "name": "recipient",
          "type": "address"
        }
      ],
      "name": "ownerMint",
      "outputs": [
        {
          "internalType": "uint256",
          "name": "",
          "type": "uint256"
        }
      ],
      "stateMutability": "nonpayable",
      "type": "function"
    },
    {
      "inputs": [
        {
          "internalType": "uint256",
          "name": "tokenId",
          "type": "uint256"
        }
      ],
      "name": "ownerOf",
      "outputs": [
        {
          "internalType": "address",
          "name": "",
          "type": "address"
        }
      ],
      "stateMutability": "view",
      "type": "function"
    },
    {
      "inputs": [],
      "name": "pause",
      "outputs": [],
      "stateMutability": "nonpayable",
      "type": "function"
    },
    {
      "inputs": [],
      "name": "paused",
      "outputs": [
        {
          "internalType": "bool",
          "name": "",
          "type": "bool"
        }
      ],
      "stateMutability": "view",
      "type": "function"
    },
    {
      "inputs": [],
      "name": "price",
      "outputs": [
        {
          "internalType": "uint256",
          "name": "",
          "type": "uint256"
        }
      ],
      "stateMutability": "view",
      "type": "function"
    },
    {
      "inputs": [],
      "name": "renounceOwnership",
      "outputs": [],
      "stateMutability": "nonpayable",
      "type": "function"
    },
    {
      "inputs": [
        {
          "internalType": "address",
          "name": "from",
          "type": "address"
        },
        {
          "internalType": "address",
          "name": "to",
          "type": "address"
        },
        {
          "internalType": "uint256",
          "name": "tokenId",
          "type": "uint256"
        }
      ],
      "name": "safeTransferFrom",
      "outputs": [],
      "stateMutability": "nonpayable",
      "type": "function"
    },
    {
      "inputs": [
        {
          "internalType": "address",
          "name": "from",
          "type": "address"
        },
        {
          "internalType": "address",
          "name": "to",
          "type": "address"
        },
        {
          "internalType": "uint256",
          "name": "tokenId",
          "type": "uint256"
        },
        {
          "internalType": "bytes",
          "name": "data",
          "type": "bytes"
        }
      ],
      "name": "safeTransferFrom",
      "outputs": [],
      "stateMutability": "nonpayable",
      "type": "function"
    },
    {
      "inputs": [
        {
          "internalType": "address",
          "name": "operator",
          "type": "address"
        },
        {
          "internalType": "bool",
          "name": "approved",
          "type": "bool"
        }
      ],
      "name": "setApprovalForAll",
      "outputs": [],
      "stateMutability": "nonpayable",
      "type": "function"
    },
    {
      "inputs": [
        {
          "internalType": "uint256",
          "name": "newPrice",
          "type": "uint256"
        }
      ],
      "name": "setPrice",
      "outputs": [],
      "stateMutability": "nonpayable",
      "type": "function"
    },
    {
      "inputs": [
        {
          "internalType": "bytes4",
          "name": "interfaceId",
          "type": "bytes4"
        }
      ],
      "name": "supportsInterface",
      "outputs": [
        {
          "internalType": "bool",
          "name": "",
          "type": "bool"
        }
      ],
      "stateMutability": "view",
      "type": "function"
    },
    {
      "inputs": [],
      "name": "symbol",
      "outputs": [
        {
          "internalType": "string",
          "name": "",
          "type": "string"
        }
      ],
      "stateMutability": "view",
      "type": "function"
    },
    {
      "inputs": [
        {
          "internalType": "uint256",
          "name": "tokenId",
          "type": "uint256"
        }
      ],
      "name": "tokenURI",
      "outputs": [
        {
          "internalType": "string",
          "name": "",
          "type": "string"
        }
      ],
      "stateMutability": "view",
      "type": "function"
    },
    {
      "inputs": [
        {
          "internalType": "address",
          "name": "from",
          "type": "address"
        },
        {
          "internalType": "address",
          "name": "to",
          "type": "address"
        },
        {
          "internalType": "uint256",
          "name": "tokenId",
          "type": "uint256"
        }
      ],
      "name": "transferFrom",
      "outputs": [],
      "stateMutability": "nonpayable",
      "type": "function"
    },
    {
      "inputs": [
        {
          "internalType": "address",
          "name": "newOwner",
          "type": "address"
        }
      ],
      "name": "transferOwnership",
      "outputs": [],
      "stateMutability": "nonpayable",
      "type": "function"
    },
    {
      "inputs": [],
      "name": "unpause",
      "outputs": [],
      "stateMutability": "nonpayable",
      "type": "function"
    },
    {
      "inputs": [],
      "name": "usdc",
      "outputs": [
        {
          "internalType": "contract IERC20",
          "name": "",
          "type": "address"
        }
      ],
      "stateMutability": "view",
      "type": "function"
    }
  ],
  "bytecode": "0x60a06040523480156200001157600080fd5b506040516200267838038062002678833981016040819052620000349162000312565b8383600062000044838262000432565b50600162000053828262000432565b50506007805460ff19169055506200006b33620000f0565b6001600160a01b038116620000c75760405162461bcd60e51b815260206004820152601a60248201527f4772656574696e67436172644e46543a207a65726f205553444300000000000060448201526064015b60405180910390fd5b6001600160a01b038116608052620f4240600855620000e6826200014a565b50505050620004fe565b600780546001600160a01b03838116610100818102610100600160a81b031985161790945560405193909204169182907f8be0079c531659141344cd1fd0a4f28419497f9722a3daafe3b4186f6b6457e090600090a35050565b62000154620001c9565b6001600160a01b038116620001bb5760405162461bcd60e51b815260206004820152602660248201527f4f776e61626c653a206e6577206f776e657220697320746865207a65726f206160448201526564647265737360d01b6064820152608401620000be565b620001c681620000f0565b50565b6007546001600160a01b036101009091041633146200022b5760405162461bcd60e51b815260206004820181905260248201527f4f776e61626c653a2063616c6c6572206973206e6f7420746865206f776e65726044820152606401620000be565b565b634e487b7160e01b600052604160045260246000fd5b600082601f8301126200025557600080fd5b81516001600160401b03808211156200027257620002726200022d565b604051601f8301601f19908116603f011681019082821181831017156200029d576200029d6200022d565b8160405283815260209250866020858801011115620002bb57600080fd5b600091505b83821015620002df5785820183015181830184015290820190620002c0565b6000602085830101528094505050505092915050565b80516001600160a01b03811681146200030d57600080fd5b919050565b600080600080608085870312156200032957600080fd5b84516001600160401b03808211156200034157600080fd5b6200034f8883890162000243565b955060208701519150808211156200036657600080fd5b50620003758782880162000243565b9350506200038660408601620002f5565b91506200039660608601620002f5565b905092959194509250565b600181811c90821680620003b657607f821691505b602082108103620003d757634e487b7160e01b600052602260045260246000fd5b50919050565b601f8211156200042d576000816000526020600020601f850160051c81016020861015620004085750805b601f850160051c820191505b81811015620004295782815560010162000414565b5050505b505050565b81516001600160401b038111156200044e576200044e6200022d565b62000466816200045f8454620003a1565b84620003dd565b602080601f8311600181146200049e5760008415620004855750858301515b600019600386901b1c1916600185901b17855562000429565b600085815260208120601f198616915b82811015620004cf57888601518255948401946001909101908401620004ae565b5085821015620004ee5787850151600019600388901b60f8161c191681555b5050505050600190811b01905550565b608051612157620005216000396000818161026901526109b701526121576000f3fe608060405234801561001057600080fd5b50600436106101cf5760003560e01c80638456cb5911610104578063a783af2e116100a2578063e985e9c511610071578063e985e9c5146103fa578063f2fde38b14610436578063fa5ac46714610449578063fa5b731b1461045c57600080fd5b8063a783af2e146103a1578063b56cc27c146103c1578063b88d4fde146103d4578063c87b56dd146103e757600080fd5b806391b7f5ed116100de57806391b7f5ed1461036a57806395d89b411461037d578063a035b1fe14610385578063a22cb4651461038e57600080fd5b80638456cb59146103235780638987b6de1461032b5780638da5cb5b1461035457600080fd5b806342842e0e1161017157806360fe99521161014b57806360fe9952146102d25780636352211e146102f557806370a0823114610308578063715018a61461031b57600080fd5b806342842e0e1461029357806358d9a767146102a65780635c975abb146102c757600080fd5b8063095ea7b3116101ad578063095ea7b31461023c57806323b872dd146102515780633e413bee146102645780633f4ba83a1461028b57600080fd5b806301ffc9a7146101d457806306fdde03146101fc578063081812fc14610211575b600080fd5b6101e76101e2366004611a83565b610466565b60405190151581526020015b60405180910390f35b610204610477565b6040516101f39190611af0565b61022461021f366004611b03565b610509565b6040516001600160a01b0390911681526020016101f3565b61024f61024a366004611b38565b610530565b005b61024f61025f366004611b62565b61064a565b6102247f000000000000000000000000000000000000000000000000000000000000000081565b61024f61067b565b61024f6102a1366004611b62565b61068d565b6102b96102b4366004611c2a565b6106a8565b6040519081526020016101f3565b60075460ff166101e7565b6102e56102e0366004611b03565b6107a5565b6040516101f39493929190611c8c565b610224610303366004611b03565b6107ed565b6102b9610316366004611cca565b61084d565b61024f6108d3565b61024f6108e5565b610224610339366004611b03565b600a602052600090815260409020546001600160a01b031681565b60075461010090046001600160a01b0316610224565b61024f610378366004611b03565b6108f5565b610204610902565b6102b960085481565b61024f61039c366004611cf3565b610911565b6103b46103af366004611cca565b610920565b6040516101f39190611d2a565b6102b96103cf366004611c2a565b61098c565b61024f6103e2366004611d6e565b6109df565b6102046103f5366004611b03565b610a17565b6101e7610408366004611dea565b6001600160a01b03918216600090815260056020908152604080832093909416825291909152205460ff1690565b61024f610444366004611cca565b610a22565b6103b4610457366004611cca565b610a9b565b6102b9620f424081565b600061047182610b05565b92915050565b60606000805461048690611e14565b80601f01602080910402602001604051908101604052809291908181526020018280546104b290611e14565b80156104ff5780601f106104d4576101008083540402835291602001916104ff565b820191906000526020600020905b8154815290600101906020018083116104e257829003601f168201915b5050505050905090565b600061051482610b2a565b506000908152600460205260409020546001600160a01b031690565b600061053b826107ed565b9050806001600160a01b0316836001600160a01b0316036105ad5760405162461bcd60e51b815260206004820152602160248201527f4552433732313a20617070726f76616c20746f2063757272656e74206f776e656044820152603960f91b60648201526084015b60405180910390fd5b336001600160a01b03821614806105c957506105c98133610408565b61063b5760405162461bcd60e51b815260206004820152603d60248201527f4552433732313a20617070726f76652063616c6c6572206973206e6f7420746f60448201527f6b656e206f776e6572206f7220617070726f76656420666f7220616c6c00000060648201526084016105a4565b6106458383610b89565b505050565b6106543382610bf7565b6106705760405162461bcd60e51b81526004016105a490611e4e565b610645838383610c76565b610683610de7565b61068b610e47565b565b610645838383604051806020016040528060008152506109df565b60006106b2610de7565b600980549060006106c283611e9b565b90915550506009546000818152600a6020908152604080832080546001600160a01b03199081166001600160a01b038916908117909255600d84528285208054339216821790558452600b835281842080546001818101835591865284862001869055908452600c83529083208054918201815583529120018190556107488382610e99565b6107528185610eb3565b826001600160a01b0316336001600160a01b0316827f4b83d8168e6d65350f0337a679f10ce70e4b7b4e3e7b395f84956f3bf253609f876040516107969190611af0565b60405180910390a49392505050565b6000818152600d6020908152604080832054600a9092528220546001600160a01b039182169291169060606107d9856107ed565b91506107e485610a17565b90509193509193565b6000818152600260205260408120546001600160a01b0316806104715760405162461bcd60e51b8152602060048201526018602482015277115490cdcc8c4e881a5b9d985b1a59081d1bdad95b88125160421b60448201526064016105a4565b60006001600160a01b0382166108b75760405162461bcd60e51b815260206004820152602960248201527f4552433732313a2061646472657373207a65726f206973206e6f7420612076616044820152683634b21037bbb732b960b91b60648201526084016105a4565b506001600160a01b031660009081526003602052604090205490565b6108db610de7565b61068b6000610f7e565b6108ed610de7565b61068b610fd8565b6108fd610de7565b600855565b60606001805461048690611e14565b61091c338383611015565b5050565b6001600160a01b0381166000908152600c602090815260409182902080548351818402810184019094528084526060939283018282801561098057602002820191906000526020600020905b81548152602001906001019080831161096c575b50505050509050919050565b60006106b2336109aa6007546001600160a01b036101009091041690565b6008546001600160a01b037f0000000000000000000000000000000000000000000000000000000000000000169291906110e3565b6109e93383610bf7565b610a055760405162461bcd60e51b81526004016105a490611e4e565b610a118484848461113d565b50505050565b606061047182611170565b610a2a610de7565b6001600160a01b038116610a8f5760405162461bcd60e51b815260206004820152602660248201527f4f776e61626c653a206e6577206f776e657220697320746865207a65726f206160448201526564647265737360d01b60648201526084016105a4565b610a9881610f7e565b50565b6001600160a01b0381166000908152600b6020908152604091829020805483518184028101840190945280845260609392830182828015610980576020028201919060005260206000209081548152602001906001019080831161096c5750505050509050919050565b60006001600160e01b03198216632483248360e11b1480610471575061047182611278565b6000818152600260205260409020546001600160a01b0316610a985760405162461bcd60e51b8152602060048201526018602482015277115490cdcc8c4e881a5b9d985b1a59081d1bdad95b88125160421b60448201526064016105a4565b600081815260046020526040902080546001600160a01b0319166001600160a01b0384169081179091558190610bbe826107ed565b6001600160a01b03167f8c5be1e5ebec7d5bd14f71427d1e84f3dd0314c0f7b2291e5b200ac8c7c3b92560405160405180910390a45050565b600080610c03836107ed565b9050806001600160a01b0316846001600160a01b03161480610c4a57506001600160a01b0380821660009081526005602090815260408083209388168352929052205460ff165b80610c6e5750836001600160a01b0316610c6384610509565b6001600160a01b0316145b949350505050565b826001600160a01b0316610c89826107ed565b6001600160a01b031614610caf5760405162461bcd60e51b81526004016105a490611ec2565b6001600160a01b038216610d115760405162461bcd60e51b8152602060048201526024808201527f4552433732313a207472616e7366657220746f20746865207a65726f206164646044820152637265737360e01b60648201526084016105a4565b610d1e83838360016112c8565b826001600160a01b0316610d31826107ed565b6001600160a01b031614610d575760405162461bcd60e51b81526004016105a490611ec2565b600081815260046020908152604080832080546001600160a01b03199081169091556001600160a01b0387811680865260038552838620805460001901905590871680865283862080546001019055868652600290945282852080549092168417909155905184937fddf252ad1be2c89b69c2b068fc378daa952ba7f163c4a11628f55a4df523b3ef91a4505050565b6007546001600160a01b0361010090910416331461068b5760405162461bcd60e51b815260206004820181905260248201527f4f776e61626c653a2063616c6c6572206973206e6f7420746865206f776e657260448201526064016105a4565b610e4f6112d5565b6007805460ff191690557f5db9ee0a495bf2e6ff9c91a7834c1ba4fdd244a5e8aa4e537bd38aeae4b073aa335b6040516001600160a01b03909116815260200160405180910390a1565b61091c82826040518060200160405280600081525061131e565b6000828152600260205260409020546001600160a01b0316610f2e5760405162461bcd60e51b815260206004820152602e60248201527f45524337323155524953746f726167653a2055524920736574206f66206e6f6e60448201526d32bc34b9ba32b73a103a37b5b2b760911b60648201526084016105a4565b6000828152600660205260409020610f468282611f57565b506040518281527ff8e1a15aba9398e019f0b49df1a4fde98ee17ae345cb5f6b5e2c27f5033e8ce79060200160405180910390a15050565b600780546001600160a01b03838116610100818102610100600160a81b031985161790945560405193909204169182907f8be0079c531659141344cd1fd0a4f28419497f9722a3daafe3b4186f6b6457e090600090a35050565b610fe0611351565b6007805460ff191660011790557f62e78cea01bee320cd4e420270b5ea74000d11b0c9f74754ebdbfc544b05a258610e7c3390565b816001600160a01b0316836001600160a01b0316036110765760405162461bcd60e51b815260206004820152601960248201527f4552433732313a20617070726f766520746f2063616c6c65720000000000000060448201526064016105a4565b6001600160a01b03838116600081815260056020908152604080832094871680845294825291829020805460ff191686151590811790915591519182527f17307eab39ab6107e8899845ad3d59bd9653f200f220920489ca2b5937696c31910160405180910390a3505050565b604080516001600160a01b0385811660248301528416604482015260648082018490528251808303909101815260849091019091526020810180516001600160e01b03166323b872dd60e01b179052610a11908590611397565b611148848484610c76565b6111548484848461146c565b610a115760405162461bcd60e51b81526004016105a490612017565b606061117b82610b2a565b6000828152600660205260408120805461119490611e14565b80601f01602080910402602001604051908101604052809291908181526020018280546111c090611e14565b801561120d5780601f106111e25761010080835404028352916020019161120d565b820191906000526020600020905b8154815290600101906020018083116111f057829003601f168201915b50505050509050600061122b60408051602081019091526000815290565b9050805160000361123d575092915050565b81511561126f578082604051602001611257929190612069565b60405160208183030381529060405292505050919050565b610c6e8461156d565b60006001600160e01b031982166380ac58cd60e01b14806112a957506001600160e01b03198216635b5e139f60e01b145b8061047157506301ffc9a760e01b6001600160e01b0319831614610471565b6112d0611351565b610a11565b60075460ff1661068b5760405162461bcd60e51b815260206004820152601460248201527314185d5cd8589b194e881b9bdd081c185d5cd95960621b60448201526064016105a4565b61132883836115e1565b611335600084848461146c565b6106455760405162461bcd60e51b81526004016105a490612017565b60075460ff161561068b5760405162461bcd60e51b815260206004820152601060248201526f14185d5cd8589b194e881c185d5cd95960821b60448201526064016105a4565b60006113ec826040518060400160405280602081526020017f5361666545524332303a206c6f772d6c6576656c2063616c6c206661696c6564815250856001600160a01b031661177a9092919063ffffffff16565b905080516000148061140d57508080602001905181019061140d9190612098565b6106455760405162461bcd60e51b815260206004820152602a60248201527f5361666545524332303a204552433230206f7065726174696f6e20646964206e6044820152691bdd081cdd58d8d9595960b21b60648201526084016105a4565b60006001600160a01b0384163b1561156257604051630a85bd0160e11b81526001600160a01b0385169063150b7a02906114b09033908990889088906004016120b5565b6020604051808303816000875af19250505080156114eb575060408051601f3d908101601f191682019092526114e8918101906120e8565b60015b611548573d808015611519576040519150601f19603f3d011682016040523d82523d6000602084013e61151e565b606091505b5080516000036115405760405162461bcd60e51b81526004016105a490612017565b805181602001fd5b6001600160e01b031916630a85bd0160e11b149050610c6e565b506001949350505050565b606061157882610b2a565b600061158f60408051602081019091526000815290565b905060008151116115af57604051806020016040528060008152506115da565b806115b984611789565b6040516020016115ca929190612069565b6040516020818303038152906040525b9392505050565b6001600160a01b0382166116375760405162461bcd60e51b815260206004820181905260248201527f4552433732313a206d696e7420746f20746865207a65726f206164647265737360448201526064016105a4565b6000818152600260205260409020546001600160a01b03161561169c5760405162461bcd60e51b815260206004820152601c60248201527f4552433732313a20746f6b656e20616c7265616479206d696e7465640000000060448201526064016105a4565b6116aa6000838360016112c8565b6000818152600260205260409020546001600160a01b03161561170f5760405162461bcd60e51b815260206004820152601c60248201527f4552433732313a20746f6b656e20616c7265616479206d696e7465640000000060448201526064016105a4565b6001600160a01b038216600081815260036020908152604080832080546001019055848352600290915280822080546001600160a01b0319168417905551839291907fddf252ad1be2c89b69c2b068fc378daa952ba7f163c4a11628f55a4df523b3ef908290a45050565b6060610c6e848460008561181c565b60606000611796836118f7565b600101905060008167ffffffffffffffff8111156117b6576117b6611b9e565b6040519080825280601f01601f1916602001820160405280156117e0576020820181803683370190505b5090508181016020015b600019016f181899199a1a9b1b9c1cb0b131b232b360811b600a86061a8153600a85049450846117ea57509392505050565b60608247101561187d5760405162461bcd60e51b815260206004820152602660248201527f416464726573733a20696e73756666696369656e742062616c616e636520666f6044820152651c8818d85b1b60d21b60648201526084016105a4565b600080866001600160a01b031685876040516118999190612105565b60006040518083038185875af1925050503d80600081146118d6576040519150601f19603f3d011682016040523d82523d6000602084013e6118db565b606091505b50915091506118ec878383876119cf565b979650505050505050565b60008072184f03e93ff9f4daa797ed6e38ed64bf6a1f0160401b83106119365772184f03e93ff9f4daa797ed6e38ed64bf6a1f0160401b830492506040015b6d04ee2d6d415b85acef81000000008310611962576d04ee2d6d415b85acef8100000000830492506020015b662386f26fc10000831061198057662386f26fc10000830492506010015b6305f5e1008310611998576305f5e100830492506008015b61271083106119ac57612710830492506004015b606483106119be576064830492506002015b600a83106104715760010192915050565b60608315611a3e578251600003611a37576001600160a01b0385163b611a375760405162461bcd60e51b815260206004820152601d60248201527f416464726573733a2063616c6c20746f206e6f6e2d636f6e747261637400000060448201526064016105a4565b5081610c6e565b610c6e8383815115611a535781518083602001fd5b8060405162461bcd60e51b81526004016105a49190611af0565b6001600160e01b031981168114610a9857600080fd5b600060208284031215611a9557600080fd5b81356115da81611a6d565b60005b83811015611abb578181015183820152602001611aa3565b50506000910152565b60008151808452611adc816020860160208601611aa0565b601f01601f19169290920160200192915050565b6020815260006115da6020830184611ac4565b600060208284031215611b1557600080fd5b5035919050565b80356001600160a01b0381168114611b3357600080fd5b919050565b60008060408385031215611b4b57600080fd5b611b5483611b1c565b946020939093013593505050565b600080600060608486031215611b7757600080fd5b611b8084611b1c565b9250611b8e60208501611b1c565b9150604084013590509250925092565b634e487b7160e01b600052604160045260246000fd5b600067ffffffffffffffff80841115611bcf57611bcf611b9e565b604051601f8501601f19908116603f01168101908282118183101715611bf757611bf7611b9e565b81604052809350858152868686011115611c1057600080fd5b858560208301376000602087830101525050509392505050565b60008060408385031215611c3d57600080fd5b823567ffffffffffffffff811115611c5457600080fd5b8301601f81018513611c6557600080fd5b611c7485823560208401611bb4565b925050611c8360208401611b1c565b90509250929050565b6001600160a01b038581168252848116602083015283166040820152608060608201819052600090611cc090830184611ac4565b9695505050505050565b600060208284031215611cdc57600080fd5b6115da82611b1c565b8015158114610a9857600080fd5b60008060408385031215611d0657600080fd5b611d0f83611b1c565b91506020830135611d1f81611ce5565b809150509250929050565b6020808252825182820181905260009190848201906040850190845b81811015611d6257835183529284019291840191600101611d46565b50909695505050505050565b60008060008060808587031215611d8457600080fd5b611d8d85611b1c565b9350611d9b60208601611b1c565b925060408501359150606085013567ffffffffffffffff811115611dbe57600080fd5b8501601f81018713611dcf57600080fd5b611dde87823560208401611bb4565b91505092959194509250565b60008060408385031215611dfd57600080fd5b611e0683611b1c565b9150611c8360208401611b1c565b600181811c90821680611e2857607f821691505b602082108103611e4857634e487b7160e01b600052602260045260246000fd5b50919050565b6020808252602d908201527f4552433732313a2063616c6c6572206973206e6f7420746f6b656e206f776e6560408201526c1c881bdc88185c1c1c9bdd9959609a1b606082015260800190565b600060018201611ebb57634e487b7160e01b600052601160045260246000fd5b5060010190565b60208082526025908201527f4552433732313a207472616e736665722066726f6d20696e636f72726563742060408201526437bbb732b960d91b606082015260800190565b601f821115610645576000816000526020600020601f850160051c81016020861015611f305750805b601f850160051c820191505b81811015611f4f57828155600101611f3c565b505050505050565b815167ffffffffffffffff811115611f7157611f71611b9e565b611f8581611f7f8454611e14565b84611f07565b602080601f831160018114611fba5760008415611fa25750858301515b600019600386901b1c1916600185901b178555611f4f565b600085815260208120601f198616915b82811015611fe957888601518255948401946001909101908401611fca565b50858210156120075787850151600019600388901b60f8161c191681555b5050505050600190811b01905550565b60208082526032908201527f4552433732313a207472616e7366657220746f206e6f6e20455243373231526560408201527131b2b4bb32b91034b6b83632b6b2b73a32b960711b606082015260800190565b6000835161207b818460208801611aa0565b83519083019061208f818360208801611aa0565b01949350505050565b6000602082840312156120aa57600080fd5b81516115da81611ce5565b6001600160a01b0385811682528416602082015260408101839052608060608201819052600090611cc090830184611ac4565b6000602082840312156120fa57600080fd5b81516115da81611a6d565b60008251612117818460208701611aa0565b919091019291505056fea264697066735822122022b0783558c4e37857f209a85e73d4f1db17946bba2bc619e9261380a8d0945d64736f6c63430008180033",
  "linkReferences": {},
  "deployedLinkReferences": {}
}