{
  "_format": "hh-sol-artifact-1",
  "contractName": "GreetingCardNFT",
  "sourceName": "contracts/GreetingCardNFT.sol",
  "abi": [
    {
      "inputs": [
        {
          "internalType": "string",
          "name": "name_",
          "type": "string"
        },
        {
          "internalType": "string",
          "name": "symbol_",
          "type": "string"
        },
        {
          "internalType": "address",
          "name": "initialOwner",
          "type": "address"
        },
        {
          "internalType": "address",
          "name": "usdc_",
          "type": "address"
        }
      ],
      "stateMutability": "nonpayable",
      "type": "constructor"
    },
    {
      "anonymous": false,
      "inputs": [
        {
          "indexed": true,
          "internalType": "address",
          "name": "owner",
          "type": "address"
        },
        {
          "indexed": true,
          "internalType": "address",
          "name": "approved",
          "type": "address"
        },
        {
          "indexed": true,
          "internalType": "uint256",
          "name": "tokenId",
          "type": "uint256"
        }
      ],
      "name": "Approval",
      "type": "event"
    },
    {
      "anonymous": false,
      "inputs": [
        {
          "indexed": true,
          "internalType": "address",
          "name": "owner",
          "type": "address"
        },
        {
          "indexed": true,
          "internalType": "address",
          "name": "operator",
          "type": "address"
        },
        {
          "indexed": false,
          "internalType": "bool",
          "name": "approved",
          "type": "bool"
        }
      ],
      "name": "ApprovalForAll",
      "type": "event"
    },
    {
      "anonymous": false,
      "inputs": [
        {
          "indexed": false,
          "internalType": "uint256",
          "name": "_fromTokenId",
          "type": "uint256"
        },
        {
          "indexed": false,
          "internalType": "uint256",
          "name": "_toTokenId",
          "type": "uint256"
        }
      ],
      "name": "BatchMetadataUpdate",
      "type": "event"
    },
    {
      "anonymous": false,
      "inputs": [
        {
          "indexed": true,
          "internalType": "uint256",
          "name": "tokenId",
          "type": "uint256"
        },
        {
          "indexed": true,
          "internalType": "address",
          "name": "sender",
          "type": "address"
        },
        {
          "indexed": true,
          "internalType": "address",
          "name": "recipient",
          "type": "address"
        },
        {
          "indexed": false,
          "internalType": "string",
          "name": "tokenURI",
          "type": "string"
        }
      ],
      "name": "CardMinted",
      "type": "event"
    },
    {
      "anonymous": false,
      "inputs": [
        {
          "indexed": false,
          "internalType": "uint256",
          "name": "_tokenId",
          "type": "uint256"
        }
      ],
      "name": "MetadataUpdate",
      "type": "event"
    },
    {
      "anonymous": false,
      "inputs": [
        {
          "indexed": true,
          "internalType": "address",
          "name": "previousOwner",
          "type": "address"
        },
        {
          "indexed": true,
          "internalType": "address",
          "name": "newOwner",
          "type": "address"
        }
      ],
      "name": "OwnershipTransferred",
      "type": "event"
    },
    {
      "anonymous": false,
      "inputs": [
        {
          "indexed": false,
          "internalType": "address",
          "name": "account",
          "type": "address"
        }
      ],
      "name": "Paused",
      "type": "event"
    },
    {
      "anonymous": false,
      "inputs": [
        {
          "indexed": true,
          "internalType": "address",
          "name": "from",
          "type": "address"
        },
        {
          "indexed": true,
          "internalType": "address",
          "name": "to",
          "type": "address"
        },
        {
          "indexed": true,
          "internalType": "uint256",
          "name": "tokenId",
          "type": "uint256"
        }
      ],
      "name": "Transfer",
      "type": "event"
    },
    {
      "anonymous": false,
      "inputs": [
        {
          "indexed": false,
          "internalType": "address",
          "name": "account",
          "type": "address"
        }
      ],
      "name": "Unpaused",
      "type": "event"
    },
    {
      "inputs": [],
      "name": "ONE_USDC",
      "outputs": [
        {
          "internalType": "uint256",
          "name": "",
          "type": "uint256"
        }
      ],
      "stateMutability": "view",
      "type": "function"
    },
    {
      "inputs": [
        {
          "internalType": "address",
          "name": "to",
          "type": "address"
        },
        {
          "internalType": "uint256",
          "name": "tokenId",
          "type": "uint256"
        }
      ],
      "name": "approve",
      "outputs": [],
      "stateMutability": "nonpayable",
      "type": "function"
    },
    {
      "inputs": [
        {
          "internalType": "address",
          "name": "owner",
          "type": "address"
        }
      ],
      "name": "balanceOf",
      "outputs": [
        {
          "internalType": "uint256",
          "name": "",
          "type": "uint256"
        }
      ],
      "stateMutability": "view",
      "type": "function"
    },
    {
      "inputs": [
        {
          "internalType": "uint256",
          "name": "",
          "type": "uint256"
        }
      ],
      "name": "cardRecipient",
      "outputs": [
        {
          "internalType": "address",
          "name": "",
          "type": "address"
        }
      ],
      "stateMutability": "view",
      "type": "function"
    },
    {
      "inputs": [
        {
          "internalType": "uint256",
          "name": "tokenId",
          "type": "uint256"
        }
      ],
      "name": "getApproved",
      "outputs": [
        {
          "internalType": "address",
          "name": "",
          "type": "address"
        }
      ],
      "stateMutability": "view",
      "type": "function"
    },
    {
      "inputs": [
        {
          "internalType": "uint256",
          "name": "tokenId",
          "type": "uint256"
        }
      ],
      "name": "getCardDetails",
      "outputs": [
        {
          "internalType": "address",
          "name": "sender",
          "type": "address"
        },
        {
          "internalType": "address",
          "name": "recipient",
          "type": "address"
        },
        {
          "internalType": "address",
          "name": "currentOwner",
          "type": "address"
        },
        {
          "internalType": "string",
          "name": "uri",
          "type": "string"
        }
      ],
      "stateMutability": "view",
      "type": "function"
    },
    {
      "inputs": [
        {
          "internalType": "address",
          "name": "recipient",
          "type": "address"
        }
      ],
      "name": "getCardsReceived",
      "outputs": [
        {
          "internalType": "uint256[]",
          "name": "",
          "type": "uint256[]"
        }
      ],
      "stateMutability": "view",
      "type": "function"
    },
    {
      "inputs": [
        {
          "internalType": "address",
          "name": "sender",
          "type": "address"
        }
      ],
      "name": "getCardsSent",
      "outputs": [
        {
          "internalType": "uint256[]",
          "name": "",
          "type": "uint256[]"
        }
      ],
      "stateMutability": "view",
      "type": "function"
    },
    {
      "inputs": [
        {
          "internalType": "address",
          "name": "owner",
          "type": "address"
        },
        {
          "internalType": "address",
          "name": "operator",
          "type": "address"
        }
      ],
      "name": "isApprovedForAll",
      "outputs": [
        {
          "internalType": "bool",
          "name": "",
          "type": "bool"
        }
      ],
      "stateMutability": "view",
      "type": "function"
    },
    {
      "inputs": [
        {
          "internalType": "string",
          "name": "uri",
          "type": "string"
        },
        {
          "internalType": "address",
          "name": "recipient",
          "type": "address"
        }
      ],
      "name": "mintGreetingCard",
      "outputs": [
        {
          "internalType": "uint256",
          "name": "",
          "type": "uint256"
        }
      ],
      "stateMutability": "nonpayable",
      "type": "function"
    },
    {
      "inputs": [],
      "name": "name",
      "outputs": [
        {
          "internalType": "string",
          "name": "",
          "type": "string"
        }
      ],
      "stateMutability": "view",
      "type": "function"
    },
    {
      "inputs": [],
      "name": "owner",
      "outputs": [
        {
          "internalType": "address",
          "name": "",
          "type": "address"
        }
      ],
      "stateMutability": "view",
      "type": "function"
    },
    {
      "inputs": [
        {
          "internalType": "string",
          "name": "uri",
          "type": "string"
        },
        {
          "internalType": "address",
          "name": "recipient",
          "type": "address"
        },
        {
          "internalType": "address",
          "name": "originalSender",
          "type": "address"
        }
      ],
      "name": "ownerMint",
      "outputs": [
        {
          "internalType": "uint256",
          "name": "",
          "type": "uint256"
        }
      ],
      "stateMutability": "nonpayable",
      "type": "function"
    },
    {
      "inputs": [
        {
          "internalType": "uint256",
          "name": "tokenId",
          "type": "uint256"
        }
      ],
      "name": "ownerOf",
      "outputs": [
        {
          "internalType": "address",
          "name": "",
          "type": "address"
        }
      ],
      "stateMutability": "view",
      "type": "function"
    },
    {
      "inputs": [],
      "name": "pause",
      "outputs": [],
      "stateMutability": "nonpayable",
      "type": "function"
    },
    {
      "inputs": [],
      "name": "paused",
      "outputs": [
        {
          "internalType": "bool",
          "name": "",
          "type": "bool"
        }
      ],
      "stateMutability": "view",
      "type": "function"
    },
    {
      "inputs": [],
      "name": "price",
      "outputs": [
        {
          "internalType": "uint256",
          "name": "",
          "type": "uint256"
        }
      ],
      "stateMutability": "view",
      "type": "function"
    },
    {
      "inputs": [],
      "name": "renounceOwnership",
      "outputs": [],
      "stateMutability": "nonpayable",
      "type": "function"
    },
    {
      "inputs": [
        {
          "internalType": "address",
          "name": "from",
          "type": "address"
        },
        {
          "internalType": "address",
          "name": "to",
          "type": "address"
        },
        {
          "internalType": "uint256",
          "name": "tokenId",
          "type": "uint256"
        }
      ],
      "name": "safeTransferFrom",
      "outputs": [],
      "stateMutability": "nonpayable",
      "type": "function"
    },
    {
      "inputs": [
        {
          "internalType": "address",
          "name": "from",
          "type": "address"
        },
        {
          "internalType": "address",
          "name": "to",
          "type": "address"
        },
        {
          "internalType": "uint256",
          "name": "tokenId",
          "type": "uint256"
        },
        {
          "internalType": "bytes",
          "name": "data",
          "type": "bytes"
        }
      ],
      "name": "safeTransferFrom",
      "outputs": [],
      "stateMutability": "nonpayable",
      "type": "function"
    },
    {
      "inputs": [
        {
          "internalType": "address",
          "name": "operator",
          "type": "address"
        },
        {
          "internalType": "bool",
          "name": "approved",
          "type": "bool"
        }
      ],
      "name": "setApprovalForAll",
      "outputs": [],
      "stateMutability": "nonpayable",
      "type": "function"
    },
    {
      "inputs": [
        {
          "internalType": "uint256",
          "name": "newPrice",
          "type": "uint256"
        }
      ],
      "name": "setPrice",
      "outputs": [],
      "stateMutability": "nonpayable",
      "type": "function"
    },
    {
      "inputs": [
        {
          "internalType": "bytes4",
          "name": "interfaceId",
          "type": "bytes4"
        }
      ],
      "name": "supportsInterface",
      "outputs": [
        {
          "internalType": "bool",
          "name": "",
          "type": "bool"
        }
      ],
      "stateMutability": "view",
      "type": "function"
    },
    {
      "inputs": [],
      "name": "symbol",
      "outputs": [
        {
          "internalType": "string",
          "name": "",
          "type": "string"
        }
      ],
      "stateMutability": "view",
      "type": "function"
    },
    {
      "inputs": [
        {
          "internalType": "uint256",
          "name": "tokenId",
          "type": "uint256"
        }
      ],
      "name": "tokenURI",
      "outputs": [
        {
          "internalType": "string",
          "name": "",
          "type": "string"
        }
      ],
      "stateMutability": "view",
      "type": "function"
    },
    {
      "inputs": [
        {
          "internalType": "address",
          "name": "from",
          "type": "address"
        },
        {
          "internalType": "address",
          "name": "to",
          "type": "address"
        },
        {
          "internalType": "uint256",
          "name": "tokenId",
          "type": "uint256"
        }
      ],
      "name": "transferFrom",
      "outputs": [],
      "stateMutability": "nonpayable",
      "type": "function"
    },
    {
      "inputs": [
        {
          "internalType": "address",
          "name": "newOwner",
          "type": "address"
        }
      ],
      "name": "transferOwnership",
      "outputs": [],
      "stateMutability": "nonpayable",
      "type": "function"
    },
    {
      "inputs": [],
      "name": "unpause",
      "outputs": [],
      "stateMutability": "nonpayable",
      "type": "function"
    },
    {
      "inputs": [],
      "name": "usdc",
      "outputs": [
        {
          "internalType": "contract IERC20",
          "name": "",
          "type": "address"
        }
      ],
      "stateMutability": "view",
      "type": "function"
    }
  ],
  "bytecode": "0x60a06040523480156200001157600080fd5b50604051620027db380380620027db833981016040819052620000349162000312565b8383600062000044838262000432565b50600162000053828262000432565b50506007805460ff19169055506200006b33620000f0565b6001600160a01b038116620000c75760405162461bcd60e51b815260206004820152601a60248201527f4772656574696e67436172644e46543a207a65726f205553444300000000000060448201526064015b60405180910390fd5b6001600160a01b038116608052620f4240600855620000e6826200014a565b50505050620004fe565b600780546001600160a01b03838116610100818102610100600160a81b031985161790945560405193909204169182907f8be0079c531659141344cd1fd0a4f28419497f9722a3daafe3b4186f6b6457e090600090a35050565b62000154620001c9565b6001600160a01b038116620001bb5760405162461bcd60e51b815260206004820152602660248201527f4f776e61626c653a206e6577206f776e657220697320746865207a65726f206160448201526564647265737360d01b6064820152608401620000be565b620001c681620000f0565b50565b6007546001600160a01b036101009091041633146200022b5760405162461bcd60e51b815260206004820181905260248201527f4f776e61626c653a2063616c6c6572206973206e6f7420746865206f776e65726044820152606401620000be565b565b634e487b7160e01b600052604160045260246000fd5b600082601f8301126200025557600080fd5b81516001600160401b03808211156200027257620002726200022d565b604051601f8301601f19908116603f011681019082821181831017156200029d576200029d6200022d565b8160405283815260209250866020858801011115620002bb57600080fd5b600091505b83821015620002df5785820183015181830184015290820190620002c0565b6000602085830101528094505050505092915050565b80516001600160a01b03811681146200030d57600080fd5b919050565b600080600080608085870312156200032957600080fd5b84516001600160401b03808211156200034157600080fd5b6200034f8883890162000243565b955060208701519150808211156200036657600080fd5b50620003758782880162000243565b9350506200038660408601620002f5565b91506200039660608601620002f5565b905092959194509250565b600181811c90821680620003b657607f821691505b602082108103620003d757634e487b7160e01b600052602260045260246000fd5b50919050565b601f8211156200042d576000816000526020600020601f850160051c81016020861015620004085750805b601f850160051c820191505b81811015620004295782815560010162000414565b5050505b505050565b81516001600160401b038111156200044e576200044e6200022d565b62000466816200045f8454620003a1565b84620003dd565b602080601f8311600181146200049e5760008415620004855750858301515b600019600386901b1c1916600185901b17855562000429565b600085815260208120601f198616915b82811015620004cf57888601518255948401946001909101908401620004ae565b5085821015620004ee5787850151600019600388901b60f8161c191681555b5050505050600190811b01905550565b6080516122ba620005216000396000818161026901526108ba01526122ba6000f3fe608060405234801561001057600080fd5b50600436106101cf5760003560e01c80638987b6de11610104578063b56cc27c116100a2578063e985e9c511610071578063e985e9c5146103fa578063f2fde38b14610436578063fa5ac46714610449578063fa5b731b1461045c57600080fd5b8063b56cc27c146103ae578063b5bcd268146103c1578063b88d4fde146103d4578063c87b56dd146103e757600080fd5b806395d89b41116100de57806395d89b411461036a578063a035b1fe14610372578063a22cb4651461037b578063a783af2e1461038e57600080fd5b80638987b6de146103185780638da5cb5b1461034157806391b7f5ed1461035757600080fd5b806342842e0e116101715780636352211e1161014b5780636352211e146102d457806370a08231146102e7578063715018a6146103085780638456cb591461031057600080fd5b806342842e0e146102935780635c975abb146102a657806360fe9952146102b157600080fd5b8063095ea7b3116101ad578063095ea7b31461023c57806323b872dd146102515780633e413bee146102645780633f4ba83a1461028b57600080fd5b806301ffc9a7146101d457806306fdde03146101fc578063081812fc14610211575b600080fd5b6101e76101e2366004611b7c565b610466565b60405190151581526020015b60405180910390f35b610204610477565b6040516101f39190611be9565b61022461021f366004611bfc565b610509565b6040516001600160a01b0390911681526020016101f3565b61024f61024a366004611c31565b610530565b005b61024f61025f366004611c5b565b61064a565b6102247f000000000000000000000000000000000000000000000000000000000000000081565b61024f61067b565b61024f6102a1366004611c5b565b61068d565b60075460ff166101e7565b6102c46102bf366004611bfc565b6106a8565b6040516101f39493929190611c97565b6102246102e2366004611bfc565b6106f0565b6102fa6102f5366004611cd5565b610750565b6040519081526020016101f3565b61024f6107d6565b61024f6107e8565b610224610326366004611bfc565b600a602052600090815260409020546001600160a01b031681565b60075461010090046001600160a01b0316610224565b61024f610365366004611bfc565b6107f8565b610204610805565b6102fa60085481565b61024f610389366004611cfe565b610814565b6103a161039c366004611cd5565b610823565b6040516101f39190611d35565b6102fa6103bc366004611e25565b61088f565b6102fa6103cf366004611e73565b6109d5565b61024f6103e2366004611ed1565b610ad8565b6102046103f5366004611bfc565b610b10565b6101e7610408366004611f4d565b6001600160a01b03918216600090815260056020908152604080832093909416825291909152205460ff1690565b61024f610444366004611cd5565b610b1b565b6103a1610457366004611cd5565b610b94565b6102fa620f424081565b600061047182610bfe565b92915050565b60606000805461048690611f77565b80601f01602080910402602001604051908101604052809291908181526020018280546104b290611f77565b80156104ff5780601f106104d4576101008083540402835291602001916104ff565b820191906000526020600020905b8154815290600101906020018083116104e257829003601f168201915b5050505050905090565b600061051482610c23565b506000908152600460205260409020546001600160a01b031690565b600061053b826106f0565b9050806001600160a01b0316836001600160a01b0316036105ad5760405162461bcd60e51b815260206004820152602160248201527f4552433732313a20617070726f76616c20746f2063757272656e74206f776e656044820152603960f91b60648201526084015b60405180910390fd5b336001600160a01b03821614806105c957506105c98133610408565b61063b5760405162461bcd60e51b815260206004820152603d60248201527f4552433732313a20617070726f76652063616c6c6572206973206e6f7420746f60448201527f6b656e206f776e6572206f7220617070726f76656420666f7220616c6c00000060648201526084016105a4565b6106458383610c82565b505050565b6106543382610cf0565b6106705760405162461bcd60e51b81526004016105a490611fb1565b610645838383610d6f565b610683610ee0565b61068b610f40565b565b61064583838360405180602001604052806000815250610ad8565b6000818152600d6020908152604080832054600a9092528220546001600160a01b039182169291169060606106dc856106f0565b91506106e785610b10565b90509193509193565b6000818152600260205260408120546001600160a01b0316806104715760405162461bcd60e51b8152602060048201526018602482015277115490cdcc8c4e881a5b9d985b1a59081d1bdad95b88125160421b60448201526064016105a4565b60006001600160a01b0382166107ba5760405162461bcd60e51b815260206004820152602960248201527f4552433732313a2061646472657373207a65726f206973206e6f7420612076616044820152683634b21037bbb732b960b91b60648201526084016105a4565b506001600160a01b031660009081526003602052604090205490565b6107de610ee0565b61068b6000610f92565b6107f0610ee0565b61068b610fec565b610800610ee0565b600855565b60606001805461048690611f77565b61081f338383611029565b5050565b6001600160a01b0381166000908152600c602090815260409182902080548351818402810184019094528084526060939283018282801561088357602002820191906000526020600020905b81548152602001906001019080831161086f575b50505050509050919050565b60006108e2336108ad6007546001600160a01b036101009091041690565b6008546001600160a01b037f0000000000000000000000000000000000000000000000000000000000000000169291906110f7565b600980549060006108f283611ffe565b90915550506009546000818152600a6020908152604080832080546001600160a01b03199081166001600160a01b038916908117909255600d84528285208054339216821790558452600b835281842080546001818101835591865284862001869055908452600c83529083208054918201815583529120018190556109788382611151565b610982818561116b565b826001600160a01b0316336001600160a01b0316827f4b83d8168e6d65350f0337a679f10ce70e4b7b4e3e7b395f84956f3bf253609f876040516109c69190611be9565b60405180910390a49392505050565b60006109df610ee0565b600980549060006109ef83611ffe565b90915550506009546000818152600a6020908152604080832080546001600160a01b03808a166001600160a01b03199283168117909355600d85528386208054918a169190921681179091558452600b835281842080546001818101835591865284862001869055908452600c8352908320805491820181558352912001819055610a7a8482611151565b610a84818661116b565b836001600160a01b0316836001600160a01b0316827f4b83d8168e6d65350f0337a679f10ce70e4b7b4e3e7b395f84956f3bf253609f88604051610ac89190611be9565b60405180910390a4949350505050565b610ae23383610cf0565b610afe5760405162461bcd60e51b81526004016105a490611fb1565b610b0a84848484611236565b50505050565b606061047182611269565b610b23610ee0565b6001600160a01b038116610b885760405162461bcd60e51b815260206004820152602660248201527f4f776e61626c653a206e6577206f776e657220697320746865207a65726f206160448201526564647265737360d01b60648201526084016105a4565b610b9181610f92565b50565b6001600160a01b0381166000908152600b6020908152604091829020805483518184028101840190945280845260609392830182828015610883576020028201919060005260206000209081548152602001906001019080831161086f5750505050509050919050565b60006001600160e01b03198216632483248360e11b1480610471575061047182611371565b6000818152600260205260409020546001600160a01b0316610b915760405162461bcd60e51b8152602060048201526018602482015277115490cdcc8c4e881a5b9d985b1a59081d1bdad95b88125160421b60448201526064016105a4565b600081815260046020526040902080546001600160a01b0319166001600160a01b0384169081179091558190610cb7826106f0565b6001600160a01b03167f8c5be1e5ebec7d5bd14f71427d1e84f3dd0314c0f7b2291e5b200ac8c7c3b92560405160405180910390a45050565b600080610cfc836106f0565b9050806001600160a01b0316846001600160a01b03161480610d4357506001600160a01b0380821660009081526005602090815260408083209388168352929052205460ff165b80610d675750836001600160a01b0316610d5c84610509565b6001600160a01b0316145b949350505050565b826001600160a01b0316610d82826106f0565b6001600160a01b031614610da85760405162461bcd60e51b81526004016105a490612025565b6001600160a01b038216610e0a5760405162461bcd60e51b8152602060048201526024808201527f4552433732313a207472616e7366657220746f20746865207a65726f206164646044820152637265737360e01b60648201526084016105a4565b610e1783838360016113c1565b826001600160a01b0316610e2a826106f0565b6001600160a01b031614610e505760405162461bcd60e51b81526004016105a490612025565b600081815260046020908152604080832080546001600160a01b03199081169091556001600160a01b0387811680865260038552838620805460001901905590871680865283862080546001019055868652600290945282852080549092168417909155905184937fddf252ad1be2c89b69c2b068fc378daa952ba7f163c4a11628f55a4df523b3ef91a4505050565b6007546001600160a01b0361010090910416331461068b5760405162461bcd60e51b815260206004820181905260248201527f4f776e61626c653a2063616c6c6572206973206e6f7420746865206f776e657260448201526064016105a4565b610f486113ce565b6007805460ff191690557f5db9ee0a495bf2e6ff9c91a7834c1ba4fdd244a5e8aa4e537bd38aeae4b073aa335b6040516001600160a01b03909116815260200160405180910390a1565b600780546001600160a01b03838116610100818102610100600160a81b031985161790945560405193909204169182907f8be0079c531659141344cd1fd0a4f28419497f9722a3daafe3b4186f6b6457e090600090a35050565b610ff4611417565b6007805460ff191660011790557f62e78cea01bee320cd4e420270b5ea74000d11b0c9f74754ebdbfc544b05a258610f753390565b816001600160a01b0316836001600160a01b03160361108a5760405162461bcd60e51b815260206004820152601960248201527f4552433732313a20617070726f766520746f2063616c6c65720000000000000060448201526064016105a4565b6001600160a01b03838116600081815260056020908152604080832094871680845294825291829020805460ff191686151590811790915591519182527f17307eab39ab6107e8899845ad3d59bd9653f200f220920489ca2b5937696c31910160405180910390a3505050565b604080516001600160a01b0385811660248301528416604482015260648082018490528251808303909101815260849091019091526020810180516001600160e01b03166323b872dd60e01b179052610b0a90859061145d565b61081f828260405180602001604052806000815250611532565b6000828152600260205260409020546001600160a01b03166111e65760405162461bcd60e51b815260206004820152602e60248201527f45524337323155524953746f726167653a2055524920736574206f66206e6f6e60448201526d32bc34b9ba32b73a103a37b5b2b760911b60648201526084016105a4565b60008281526006602052604090206111fe82826120ba565b506040518281527ff8e1a15aba9398e019f0b49df1a4fde98ee17ae345cb5f6b5e2c27f5033e8ce79060200160405180910390a15050565b611241848484610d6f565b61124d84848484611565565b610b0a5760405162461bcd60e51b81526004016105a49061217a565b606061127482610c23565b6000828152600660205260408120805461128d90611f77565b80601f01602080910402602001604051908101604052809291908181526020018280546112b990611f77565b80156113065780601f106112db57610100808354040283529160200191611306565b820191906000526020600020905b8154815290600101906020018083116112e957829003601f168201915b50505050509050600061132460408051602081019091526000815290565b90508051600003611336575092915050565b8151156113685780826040516020016113509291906121cc565b60405160208183030381529060405292505050919050565b610d6784611666565b60006001600160e01b031982166380ac58cd60e01b14806113a257506001600160e01b03198216635b5e139f60e01b145b8061047157506301ffc9a760e01b6001600160e01b0319831614610471565b6113c9611417565b610b0a565b60075460ff1661068b5760405162461bcd60e51b815260206004820152601460248201527314185d5cd8589b194e881b9bdd081c185d5cd95960621b60448201526064016105a4565b60075460ff161561068b5760405162461bcd60e51b815260206004820152601060248201526f14185d5cd8589b194e881c185d5cd95960821b60448201526064016105a4565b60006114b2826040518060400160405280602081526020017f5361666545524332303a206c6f772d6c6576656c2063616c6c206661696c6564815250856001600160a01b03166116da9092919063ffffffff16565b90508051600014806114d35750808060200190518101906114d391906121fb565b6106455760405162461bcd60e51b815260206004820152602a60248201527f5361666545524332303a204552433230206f7065726174696f6e20646964206e6044820152691bdd081cdd58d8d9595960b21b60648201526084016105a4565b61153c83836116e9565b6115496000848484611565565b6106455760405162461bcd60e51b81526004016105a49061217a565b60006001600160a01b0384163b1561165b57604051630a85bd0160e11b81526001600160a01b0385169063150b7a02906115a9903390899088908890600401612218565b6020604051808303816000875af19250505080156115e4575060408051601f3d908101601f191682019092526115e19181019061224b565b60015b611641573d808015611612576040519150601f19603f3d011682016040523d82523d6000602084013e611617565b606091505b5080516000036116395760405162461bcd60e51b81526004016105a49061217a565b805181602001fd5b6001600160e01b031916630a85bd0160e11b149050610d67565b506001949350505050565b606061167182610c23565b600061168860408051602081019091526000815290565b905060008151116116a857604051806020016040528060008152506116d3565b806116b284611882565b6040516020016116c39291906121cc565b6040516020818303038152906040525b9392505050565b6060610d678484600085611915565b6001600160a01b03821661173f5760405162461bcd60e51b815260206004820181905260248201527f4552433732313a206d696e7420746f20746865207a65726f206164647265737360448201526064016105a4565b6000818152600260205260409020546001600160a01b0316156117a45760405162461bcd60e51b815260206004820152601c60248201527f4552433732313a20746f6b656e20616c7265616479206d696e7465640000000060448201526064016105a4565b6117b26000838360016113c1565b6000818152600260205260409020546001600160a01b0316156118175760405162461bcd60e51b815260206004820152601c60248201527f4552433732313a20746f6b656e20616c7265616479206d696e7465640000000060448201526064016105a4565b6001600160a01b038216600081815260036020908152604080832080546001019055848352600290915280822080546001600160a01b0319168417905551839291907fddf252ad1be2c89b69c2b068fc378daa952ba7f163c4a11628f55a4df523b3ef908290a45050565b6060600061188f836119f0565b600101905060008167ffffffffffffffff8111156118af576118af611d79565b6040519080825280601f01601f1916602001820160405280156118d9576020820181803683370190505b5090508181016020015b600019016f181899199a1a9b1b9c1cb0b131b232b360811b600a86061a8153600a85049450846118e357509392505050565b6060824710156119765760405162461bcd60e51b815260206004820152602660248201527f416464726573733a20696e73756666696369656e742062616c616e636520666f6044820152651c8818d85b1b60d21b60648201526084016105a4565b600080866001600160a01b031685876040516119929190612268565b60006040518083038185875af1925050503d80600081146119cf576040519150601f19603f3d011682016040523d82523d6000602084013e6119d4565b606091505b50915091506119e587838387611ac8565b979650505050505050565b60008072184f03e93ff9f4daa797ed6e38ed64bf6a1f0160401b8310611a2f5772184f03e93ff9f4daa797ed6e38ed64bf6a1f0160401b830492506040015b6d04ee2d6d415b85acef81000000008310611a5b576d04ee2d6d415b85acef8100000000830492506020015b662386f26fc100008310611a7957662386f26fc10000830492506010015b6305f5e1008310611a91576305f5e100830492506008015b6127108310611aa557612710830492506004015b60648310611ab7576064830492506002015b600a83106104715760010192915050565b60608315611b37578251600003611b30576001600160a01b0385163b611b305760405162461bcd60e51b815260206004820152601d60248201527f416464726573733a2063616c6c20746f206e6f6e2d636f6e747261637400000060448201526064016105a4565b5081610d67565b610d678383815115611b4c5781518083602001fd5b8060405162461bcd60e51b81526004016105a49190611be9565b6001600160e01b031981168114610b9157600080fd5b600060208284031215611b8e57600080fd5b81356116d381611b66565b60005b83811015611bb4578181015183820152602001611b9c565b50506000910152565b60008151808452611bd5816020860160208601611b99565b601f01601f19169290920160200192915050565b6020815260006116d36020830184611bbd565b600060208284031215611c0e57600080fd5b5035919050565b80356001600160a01b0381168114611c2c57600080fd5b919050565b60008060408385031215611c4457600080fd5b611c4d83611c15565b946020939093013593505050565b600080600060608486031215611c7057600080fd5b611c7984611c15565b9250611c8760208501611c15565b9150604084013590509250925092565b6001600160a01b038581168252848116602083015283166040820152608060608201819052600090611ccb90830184611bbd565b9695505050505050565b600060208284031215611ce757600080fd5b6116d382611c15565b8015158114610b9157600080fd5b60008060408385031215611d1157600080fd5b611d1a83611c15565b91506020830135611d2a81611cf0565b809150509250929050565b6020808252825182820181905260009190848201906040850190845b81811015611d6d57835183529284019291840191600101611d51565b50909695505050505050565b634e487b7160e01b600052604160045260246000fd5b600067ffffffffffffffff80841115611daa57611daa611d79565b604051601f8501601f19908116603f01168101908282118183101715611dd257611dd2611d79565b81604052809350858152868686011115611deb57600080fd5b858560208301376000602087830101525050509392505050565b600082601f830112611e1657600080fd5b6116d383833560208501611d8f565b60008060408385031215611e3857600080fd5b823567ffffffffffffffff811115611e4f57600080fd5b611e5b85828601611e05565b925050611e6a60208401611c15565b90509250929050565b600080600060608486031215611e8857600080fd5b833567ffffffffffffffff811115611e9f57600080fd5b611eab86828701611e05565b935050611eba60208501611c15565b9150611ec860408501611c15565b90509250925092565b60008060008060808587031215611ee757600080fd5b611ef085611c15565b9350611efe60208601611c15565b925060408501359150606085013567ffffffffffffffff811115611f2157600080fd5b8501601f81018713611f3257600080fd5b611f4187823560208401611d8f565b91505092959194509250565b60008060408385031215611f6057600080fd5b611f6983611c15565b9150611e6a60208401611c15565b600181811c90821680611f8b57607f821691505b602082108103611fab57634e487b7160e01b600052602260045260246000fd5b50919050565b6020808252602d908201527f4552433732313a2063616c6c6572206973206e6f7420746f6b656e206f776e6560408201526c1c881bdc88185c1c1c9bdd9959609a1b606082015260800190565b60006001820161201e57634e487b7160e01b600052601160045260246000fd5b5060010190565b60208082526025908201527f4552433732313a207472616e736665722066726f6d20696e636f72726563742060408201526437bbb732b960d91b606082015260800190565b601f821115610645576000816000526020600020601f850160051c810160208610156120935750805b601f850160051c820191505b818110156120b25782815560010161209f565b505050505050565b815167ffffffffffffffff8111156120d4576120d4611d79565b6120e8816120e28454611f77565b8461206a565b602080601f83116001811461211d57600084156121055750858301515b600019600386901b1c1916600185901b1785556120b2565b600085815260208120601f198616915b8281101561214c5788860151825594840194600190910190840161212d565b508582101561216a5787850151600019600388901b60f8161c191681555b5050505050600190811b01905550565b60208082526032908201527f4552433732313a207472616e7366657220746f206e6f6e20455243373231526560408201527131b2b4bb32b91034b6b83632b6b2b73a32b960711b606082015260800190565b600083516121de818460208801611b99565b8351908301906121f2818360208801611b99565b01949350505050565b60006020828403121561220d57600080fd5b81516116d381611cf0565b6001600160a01b0385811682528416602082015260408101839052608060608201819052600090611ccb90830184611bbd565b60006020828403121561225d57600080fd5b81516116d381611b66565b6000825161227a818460208701611b99565b919091019291505056fea264697066735822122000f86df81e7128214a7bae61951fa22c5c53aca4f60689ab5ecb619a0f457ddc64736f6c63430008180033",
  "linkReferences": {},
  "deployedLinkReferences": {}
}