{
  "_format": "hh-sol-artifact-1",
  "contractName": "GreetingCardNFT",
  "sourceName": "contracts/GreetingCardNFT.sol",
  "abi": [
    {
      "inputs": [
        {
          "internalType": "string",
          "name": "name_",
          "type": "string"
        },
        {
          "internalType": "string",
          "name": "symbol_",
          "type": "string"
        },
        {
          "internalType": "address",
          "name": "initialOwner",
          "type": "address"
        },
        {
          "internalType": "address",
          "name": "usdc_",
          "type": "address"
        }
      ],
      "stateMutability": "nonpayable",
      "type": "constructor"
    },
    {
      "anonymous": false,
      "inputs": [
        {
          "indexed": true,
          "internalType": "address",
          "name": "owner",
          "type": "address"
        },
        {
          "indexed": true,
          "internalType": "address",
          "name": "approved",
          "type": "address"
        },
        {
          "indexed": true,
          "internalType": "uint256",
          "name": "tokenId",
          "type": "uint256"
        }
      ],
      "name": "Approval",
      "type": "event"
    },
    {
      "anonymous": false,
      "inputs": [
        {
          "indexed": true,
          "internalType": "address",
          "name": "owner",
          "type": "address"
        },
        {
          "indexed": true,
          "internalType": "address",
          "name": "operator",
          "type": "address"
        },
        {
          "indexed": false,
          "internalType": "bool",
          "name": "approved",
          "type": "bool"
        }
      ],
      "name": "ApprovalForAll",
      "type": "event"
    },
    {
      "anonymous": false,
      "inputs": [
        {
          "indexed": false,
          "internalType": "uint256",
          "name": "_fromTokenId",
          "type": "uint256"
        },
        {
          "indexed": false,
          "internalType": "uint256",
          "name": "_toTokenId",
          "type": "uint256"
        }
      ],
      "name": "BatchMetadataUpdate",
      "type": "event"
    },
    {
      "anonymous": false,
      "inputs": [
        {
          "indexed": true,
          "internalType": "uint256",
          "name": "tokenId",
          "type": "uint256"
        },
        {
          "indexed": true,
          "internalType": "address",
          "name": "sender",
          "type": "address"
        },
        {
          "indexed": true,
          "internalType": "address",
          "name": "recipient",
          "type": "address"
        },
        {
          "indexed": false,
          "internalType": "string",
          "name": "tokenURI",
          "type": "string"
        }
      ],
      "name": "CardMinted",
      "type": "event"
    },
    {
      "anonymous": false,
      "inputs": [
        {
          "indexed": false,
          "internalType": "uint256",
          "name": "_tokenId",
          "type": "uint256"
        }
      ],
      "name": "MetadataUpdate",
      "type": "event"
    },
    {
      "anonymous": false,
      "inputs": [
        {
          "indexed": true,
          "internalType": "address",
          "name": "previousOwner",
          "type": "address"
        },
        {
          "indexed": true,
          "internalType": "address",
          "name": "newOwner",
          "type": "address"
        }
      ],
      "name": "OwnershipTransferred",
      "type": "event"
    },
    {
      "anonymous": false,
      "inputs": [
        {
          "indexed": false,
          "internalType": "address",
          "name": "account",
          "type": "address"
        }
      ],
      "name": "Paused",
      "type": "event"
    },
    {
      "anonymous": false,
      "inputs": [
        {
          "indexed": true,
          "internalType": "address",
          "name": "from",
          "type": "address"
        },
        {
          "indexed": true,
          "internalType": "address",
          "name": "to",
          "type": "address"
        },
        {
          "indexed": true,
          "internalType": "uint256",
          "name": "tokenId",
          "type": "uint256"
        }
      ],
      "name": "Transfer",
      "type": "event"
    },
    {
      "anonymous": false,
      "inputs": [
        {
          "indexed": false,
          "internalType": "address",
          "name": "account",
          "type": "address"
        }
      ],
      "name": "Unpaused",
      "type": "event"
    },
    {
      "inputs": [],
      "name": "ONE_USDC",
      "outputs": [
        {
          "internalType": "uint256",
          "name": "",
          "type": "uint256"
        }
      ],
      "stateMutability": "view",
      "type": "function"
    },
    {
      "inputs": [
        {
          "internalType": "address",
          "name": "to",
          "type": "address"
        },
        {
          "internalType": "uint256",
          "name": "tokenId",
          "type": "uint256"
        }
      ],
      "name": "approve",
      "outputs": [],
      "stateMutability": "nonpayable",
      "type": "function"
    },
    {
      "inputs": [
        {
          "internalType": "address",
          "name": "owner",
          "type": "address"
        }
      ],
      "name": "balanceOf",
      "outputs": [
        {
          "internalType": "uint256",
          "name": "",
          "type": "uint256"
        }
      ],
      "stateMutability": "view",
      "type": "function"
    },
    {
      "inputs": [
        {
          "internalType": "uint256",
          "name": "",
          "type": "uint256"
        }
      ],
      "name": "cardRecipient",
      "outputs": [
        {
          "internalType": "address",
          "name": "",
          "type": "address"
        }
      ],
      "stateMutability": "view",
      "type": "function"
    },
    {
      "inputs": [
        {
          "internalType": "uint256",
          "name": "tokenId",
          "type": "uint256"
        }
      ],
      "name": "getApproved",
      "outputs": [
        {
          "internalType": "address",
          "name": "",
          "type": "address"
        }
      ],
      "stateMutability": "view",
      "type": "function"
    },
    {
      "inputs": [
        {
          "internalType": "address",
          "name": "owner",
          "type": "address"
        },
        {
          "internalType": "address",
          "name": "operator",
          "type": "address"
        }
      ],
      "name": "isApprovedForAll",
      "outputs": [
        {
          "internalType": "bool",
          "name": "",
          "type": "bool"
        }
      ],
      "stateMutability": "view",
      "type": "function"
    },
    {
      "inputs": [
        {
          "internalType": "string",
          "name": "uri",
          "type": "string"
        },
        {
          "internalType": "address",
          "name": "recipient",
          "type": "address"
        }
      ],
      "name": "mintGreetingCard",
      "outputs": [
        {
          "internalType": "uint256",
          "name": "",
          "type": "uint256"
        }
      ],
      "stateMutability": "nonpayable",
      "type": "function"
    },
    {
      "inputs": [],
      "name": "name",
      "outputs": [
        {
          "internalType": "string",
          "name": "",
          "type": "string"
        }
      ],
      "stateMutability": "view",
      "type": "function"
    },
    {
      "inputs": [],
      "name": "owner",
      "outputs": [
        {
          "internalType": "address",
          "name": "",
          "type": "address"
        }
      ],
      "stateMutability": "view",
      "type": "function"
    },
    {
      "inputs": [
        {
          "internalType": "string",
          "name": "uri",
          "type": "string"
        },
        {
          "internalType": "address",
          "name": "recipient",
          "type": "address"
        }
      ],
      "name": "ownerMint",
      "outputs": [
        {
          "internalType": "uint256",
          "name": "",
          "type": "uint256"
        }
      ],
      "stateMutability": "nonpayable",
      "type": "function"
    },
    {
      "inputs": [
        {
          "internalType": "uint256",
          "name": "tokenId",
          "type": "uint256"
        }
      ],
      "name": "ownerOf",
      "outputs": [
        {
          "internalType": "address",
          "name": "",
          "type": "address"
        }
      ],
      "stateMutability": "view",
      "type": "function"
    },
    {
      "inputs": [],
      "name": "pause",
      "outputs": [],
      "stateMutability": "nonpayable",
      "type": "function"
    },
    {
      "inputs": [],
      "name": "paused",
      "outputs": [
        {
          "internalType": "bool",
          "name": "",
          "type": "bool"
        }
      ],
      "stateMutability": "view",
      "type": "function"
    },
    {
      "inputs": [],
      "name": "price",
      "outputs": [
        {
          "internalType": "uint256",
          "name": "",
          "type": "uint256"
        }
      ],
      "stateMutability": "view",
      "type": "function"
    },
    {
      "inputs": [],
      "name": "renounceOwnership",
      "outputs": [],
      "stateMutability": "nonpayable",
      "type": "function"
    },
    {
      "inputs": [
        {
          "internalType": "address",
          "name": "from",
          "type": "address"
        },
        {
          "internalType": "address",
          "name": "to",
          "type": "address"
        },
        {
          "internalType": "uint256",
          "name": "tokenId",
          "type": "uint256"
        }
      ],
      "name": "safeTransferFrom",
      "outputs": [],
      "stateMutability": "nonpayable",
      "type": "function"
    },
    {
      "inputs": [
        {
          "internalType": "address",
          "name": "from",
          "type": "address"
        },
        {
          "internalType": "address",
          "name": "to",
          "type": "address"
        },
        {
          "internalType": "uint256",
          "name": "tokenId",
          "type": "uint256"
        },
        {
          "internalType": "bytes",
          "name": "data",
          "type": "bytes"
        }
      ],
      "name": "safeTransferFrom",
      "outputs": [],
      "stateMutability": "nonpayable",
      "type": "function"
    },
    {
      "inputs": [
        {
          "internalType": "address",
          "name": "operator",
          "type": "address"
        },
        {
          "internalType": "bool",
          "name": "approved",
          "type": "bool"
        }
      ],
      "name": "setApprovalForAll",
      "outputs": [],
      "stateMutability": "nonpayable",
      "type": "function"
    },
    {
      "inputs": [
        {
          "internalType": "uint256",
          "name": "newPrice",
          "type": "uint256"
        }
      ],
      "name": "setPrice",
      "outputs": [],
      "stateMutability": "nonpayable",
      "type": "function"
    },
    {
      "inputs": [
        {
          "internalType": "bytes4",
          "name": "interfaceId",
          "type": "bytes4"
        }
      ],
      "name": "supportsInterface",
      "outputs": [
        {
          "internalType": "bool",
          "name": "",
          "type": "bool"
        }
      ],
      "stateMutability": "view",
      "type": "function"
    },
    {
      "inputs": [],
      "name": "symbol",
      "outputs": [
        {
          "internalType": "string",
          "name": "",
          "type": "string"
        }
      ],
      "stateMutability": "view",
      "type": "function"
    },
    {
      "inputs": [
        {
          "internalType": "uint256",
          "name": "tokenId",
          "type": "uint256"
        }
      ],
      "name": "tokenURI",
      "outputs": [
        {
          "internalType": "string",
          "name": "",
          "type": "string"
        }
      ],
      "stateMutability": "view",
      "type": "function"
    },
    {
      "inputs": [
        {
          "internalType": "address",
          "name": "from",
          "type": "address"
        },
        {
          "internalType": "address",
          "name": "to",
          "type": "address"
        },
        {
          "internalType": "uint256",
          "name": "tokenId",
          "type": "uint256"
        }
      ],
      "name": "transferFrom",
      "outputs": [],
      "stateMutability": "nonpayable",
      "type": "function"
    },
    {
      "inputs": [
        {
          "internalType": "address",
          "name": "newOwner",
          "type": "address"
        }
      ],
      "name": "transferOwnership",
      "outputs": [],
      "stateMutability": "nonpayable",
      "type": "function"
    },
    {
      "inputs": [],
      "name": "unpause",
      "outputs": [],
      "stateMutability": "nonpayable",
      "type": "function"
    },
    {
      "inputs": [],
      "name": "usdc",
      "outputs": [
        {
          "internalType": "contract IERC20",
          "name": "",
          "type": "address"
        }
      ],
      "stateMutability": "view",
      "type": "function"
    }
  ],
  "bytecode": "0x60a06040523480156200001157600080fd5b50604051620023fe380380620023fe833981016040819052620000349162000312565b8383600062000044838262000432565b50600162000053828262000432565b50506007805460ff19169055506200006b33620000f0565b6001600160a01b038116620000c75760405162461bcd60e51b815260206004820152601a60248201527f4772656574696e67436172644e46543a207a65726f205553444300000000000060448201526064015b60405180910390fd5b6001600160a01b038116608052620f4240600855620000e6826200014a565b50505050620004fe565b600780546001600160a01b03838116610100818102610100600160a81b031985161790945560405193909204169182907f8be0079c531659141344cd1fd0a4f28419497f9722a3daafe3b4186f6b6457e090600090a35050565b62000154620001c9565b6001600160a01b038116620001bb5760405162461bcd60e51b815260206004820152602660248201527f4f776e61626c653a206e6577206f776e657220697320746865207a65726f206160448201526564647265737360d01b6064820152608401620000be565b620001c681620000f0565b50565b6007546001600160a01b036101009091041633146200022b5760405162461bcd60e51b815260206004820181905260248201527f4f776e61626c653a2063616c6c6572206973206e6f7420746865206f776e65726044820152606401620000be565b565b634e487b7160e01b600052604160045260246000fd5b600082601f8301126200025557600080fd5b81516001600160401b03808211156200027257620002726200022d565b604051601f8301601f19908116603f011681019082821181831017156200029d576200029d6200022d565b8160405283815260209250866020858801011115620002bb57600080fd5b600091505b83821015620002df5785820183015181830184015290820190620002c0565b6000602085830101528094505050505092915050565b80516001600160a01b03811681146200030d57600080fd5b919050565b600080600080608085870312156200032957600080fd5b84516001600160401b03808211156200034157600080fd5b6200034f8883890162000243565b955060208701519150808211156200036657600080fd5b50620003758782880162000243565b9350506200038660408601620002f5565b91506200039660608601620002f5565b905092959194509250565b600181811c90821680620003b657607f821691505b602082108103620003d757634e487b7160e01b600052602260045260246000fd5b50919050565b601f8211156200042d576000816000526020600020601f850160051c81016020861015620004085750805b601f850160051c820191505b81811015620004295782815560010162000414565b5050505b505050565b81516001600160401b038111156200044e576200044e6200022d565b62000466816200045f8454620003a1565b84620003dd565b602080601f8311600181146200049e5760008415620004855750858301515b600019600386901b1c1916600185901b17855562000429565b600085815260208120601f198616915b82811015620004cf57888601518255948401946001909101908401620004ae565b5085821015620004ee5787850151600019600388901b60f8161c191681555b5050505050600190811b01905550565b608051611edd6200052160003960008181610228015261081f0152611edd6000f3fe608060405234801561001057600080fd5b506004361061018e5760003560e01c80638456cb59116100de578063a22cb46511610097578063c87b56dd11610071578063c87b56dd14610363578063e985e9c514610376578063f2fde38b146103b2578063fa5b731b146103c557600080fd5b8063a22cb4651461032a578063b56cc27c1461033d578063b88d4fde1461035057600080fd5b80638456cb59146102bf5780638987b6de146102c75780638da5cb5b146102f057806391b7f5ed1461030657806395d89b4114610319578063a035b1fe1461032157600080fd5b80633f4ba83a1161014b5780635c975abb116101255780635c975abb146102865780636352211e1461029157806370a08231146102a4578063715018a6146102b757600080fd5b80633f4ba83a1461024a57806342842e0e1461025257806358d9a7671461026557600080fd5b806301ffc9a71461019357806306fdde03146101bb578063081812fc146101d0578063095ea7b3146101fb57806323b872dd146102105780633e413bee14610223575b600080fd5b6101a66101a1366004611881565b6103cf565b60405190151581526020015b60405180910390f35b6101c36103e0565b6040516101b291906118ee565b6101e36101de366004611901565b610472565b6040516001600160a01b0390911681526020016101b2565b61020e610209366004611936565b610499565b005b61020e61021e366004611960565b6105b3565b6101e37f000000000000000000000000000000000000000000000000000000000000000081565b61020e6105e4565b61020e610260366004611960565b6105f6565b610278610273366004611a28565b610611565b6040519081526020016101b2565b60075460ff166101a6565b6101e361029f366004611901565b6106c1565b6102786102b2366004611a8a565b610721565b61020e6107a7565b61020e6107b9565b6101e36102d5366004611901565b600a602052600090815260409020546001600160a01b031681565b60075461010090046001600160a01b03166101e3565b61020e610314366004611901565b6107c9565b6101c36107d6565b61027860085481565b61020e610338366004611ab3565b6107e5565b61027861034b366004611a28565b6107f4565b61020e61035e366004611aea565b610847565b6101c3610371366004611901565b61087f565b6101a6610384366004611b66565b6001600160a01b03918216600090815260056020908152604080832093909416825291909152205460ff1690565b61020e6103c0366004611a8a565b61088a565b610278620f424081565b60006103da82610903565b92915050565b6060600080546103ef90611b90565b80601f016020809104026020016040519081016040528092919081815260200182805461041b90611b90565b80156104685780601f1061043d57610100808354040283529160200191610468565b820191906000526020600020905b81548152906001019060200180831161044b57829003601f168201915b5050505050905090565b600061047d82610928565b506000908152600460205260409020546001600160a01b031690565b60006104a4826106c1565b9050806001600160a01b0316836001600160a01b0316036105165760405162461bcd60e51b815260206004820152602160248201527f4552433732313a20617070726f76616c20746f2063757272656e74206f776e656044820152603960f91b60648201526084015b60405180910390fd5b336001600160a01b038216148061053257506105328133610384565b6105a45760405162461bcd60e51b815260206004820152603d60248201527f4552433732313a20617070726f76652063616c6c6572206973206e6f7420746f60448201527f6b656e206f776e6572206f7220617070726f76656420666f7220616c6c000000606482015260840161050d565b6105ae8383610987565b505050565b6105bd33826109f5565b6105d95760405162461bcd60e51b815260040161050d90611bca565b6105ae838383610a74565b6105ec610be5565b6105f4610c45565b565b6105ae83838360405180602001604052806000815250610847565b600061061b610be5565b6009805490600061062b83611c17565b90915550506009546000818152600a6020526040902080546001600160a01b0319166001600160a01b0385161790556106648382610c97565b61066e8185610cb1565b826001600160a01b0316336001600160a01b0316827f4b83d8168e6d65350f0337a679f10ce70e4b7b4e3e7b395f84956f3bf253609f876040516106b291906118ee565b60405180910390a49392505050565b6000818152600260205260408120546001600160a01b0316806103da5760405162461bcd60e51b8152602060048201526018602482015277115490cdcc8c4e881a5b9d985b1a59081d1bdad95b88125160421b604482015260640161050d565b60006001600160a01b03821661078b5760405162461bcd60e51b815260206004820152602960248201527f4552433732313a2061646472657373207a65726f206973206e6f7420612076616044820152683634b21037bbb732b960b91b606482015260840161050d565b506001600160a01b031660009081526003602052604090205490565b6107af610be5565b6105f46000610d7c565b6107c1610be5565b6105f4610dd6565b6107d1610be5565b600855565b6060600180546103ef90611b90565b6107f0338383610e13565b5050565b600061061b336108126007546001600160a01b036101009091041690565b6008546001600160a01b037f000000000000000000000000000000000000000000000000000000000000000016929190610ee1565b61085133836109f5565b61086d5760405162461bcd60e51b815260040161050d90611bca565b61087984848484610f3b565b50505050565b60606103da82610f6e565b610892610be5565b6001600160a01b0381166108f75760405162461bcd60e51b815260206004820152602660248201527f4f776e61626c653a206e6577206f776e657220697320746865207a65726f206160448201526564647265737360d01b606482015260840161050d565b61090081610d7c565b50565b60006001600160e01b03198216632483248360e11b14806103da57506103da82611076565b6000818152600260205260409020546001600160a01b03166109005760405162461bcd60e51b8152602060048201526018602482015277115490cdcc8c4e881a5b9d985b1a59081d1bdad95b88125160421b604482015260640161050d565b600081815260046020526040902080546001600160a01b0319166001600160a01b03841690811790915581906109bc826106c1565b6001600160a01b03167f8c5be1e5ebec7d5bd14f71427d1e84f3dd0314c0f7b2291e5b200ac8c7c3b92560405160405180910390a45050565b600080610a01836106c1565b9050806001600160a01b0316846001600160a01b03161480610a4857506001600160a01b0380821660009081526005602090815260408083209388168352929052205460ff165b80610a6c5750836001600160a01b0316610a6184610472565b6001600160a01b0316145b949350505050565b826001600160a01b0316610a87826106c1565b6001600160a01b031614610aad5760405162461bcd60e51b815260040161050d90611c3e565b6001600160a01b038216610b0f5760405162461bcd60e51b8152602060048201526024808201527f4552433732313a207472616e7366657220746f20746865207a65726f206164646044820152637265737360e01b606482015260840161050d565b610b1c83838360016110c6565b826001600160a01b0316610b2f826106c1565b6001600160a01b031614610b555760405162461bcd60e51b815260040161050d90611c3e565b600081815260046020908152604080832080546001600160a01b03199081169091556001600160a01b0387811680865260038552838620805460001901905590871680865283862080546001019055868652600290945282852080549092168417909155905184937fddf252ad1be2c89b69c2b068fc378daa952ba7f163c4a11628f55a4df523b3ef91a4505050565b6007546001600160a01b036101009091041633146105f45760405162461bcd60e51b815260206004820181905260248201527f4f776e61626c653a2063616c6c6572206973206e6f7420746865206f776e6572604482015260640161050d565b610c4d6110d3565b6007805460ff191690557f5db9ee0a495bf2e6ff9c91a7834c1ba4fdd244a5e8aa4e537bd38aeae4b073aa335b6040516001600160a01b03909116815260200160405180910390a1565b6107f082826040518060200160405280600081525061111c565b6000828152600260205260409020546001600160a01b0316610d2c5760405162461bcd60e51b815260206004820152602e60248201527f45524337323155524953746f726167653a2055524920736574206f66206e6f6e60448201526d32bc34b9ba32b73a103a37b5b2b760911b606482015260840161050d565b6000828152600660205260409020610d448282611cd3565b506040518281527ff8e1a15aba9398e019f0b49df1a4fde98ee17ae345cb5f6b5e2c27f5033e8ce79060200160405180910390a15050565b600780546001600160a01b03838116610100818102610100600160a81b031985161790945560405193909204169182907f8be0079c531659141344cd1fd0a4f28419497f9722a3daafe3b4186f6b6457e090600090a35050565b610dde61114f565b6007805460ff191660011790557f62e78cea01bee320cd4e420270b5ea74000d11b0c9f74754ebdbfc544b05a258610c7a3390565b816001600160a01b0316836001600160a01b031603610e745760405162461bcd60e51b815260206004820152601960248201527f4552433732313a20617070726f766520746f2063616c6c657200000000000000604482015260640161050d565b6001600160a01b03838116600081815260056020908152604080832094871680845294825291829020805460ff191686151590811790915591519182527f17307eab39ab6107e8899845ad3d59bd9653f200f220920489ca2b5937696c31910160405180910390a3505050565b604080516001600160a01b0385811660248301528416604482015260648082018490528251808303909101815260849091019091526020810180516001600160e01b03166323b872dd60e01b179052610879908590611195565b610f46848484610a74565b610f528484848461126a565b6108795760405162461bcd60e51b815260040161050d90611d93565b6060610f7982610928565b60008281526006602052604081208054610f9290611b90565b80601f0160208091040260200160405190810160405280929190818152602001828054610fbe90611b90565b801561100b5780601f10610fe05761010080835404028352916020019161100b565b820191906000526020600020905b815481529060010190602001808311610fee57829003601f168201915b50505050509050600061102960408051602081019091526000815290565b9050805160000361103b575092915050565b81511561106d578082604051602001611055929190611de5565b60405160208183030381529060405292505050919050565b610a6c8461136b565b60006001600160e01b031982166380ac58cd60e01b14806110a757506001600160e01b03198216635b5e139f60e01b145b806103da57506301ffc9a760e01b6001600160e01b03198316146103da565b6110ce61114f565b610879565b60075460ff166105f45760405162461bcd60e51b815260206004820152601460248201527314185d5cd8589b194e881b9bdd081c185d5cd95960621b604482015260640161050d565b61112683836113df565b611133600084848461126a565b6105ae5760405162461bcd60e51b815260040161050d90611d93565b60075460ff16156105f45760405162461bcd60e51b815260206004820152601060248201526f14185d5cd8589b194e881c185d5cd95960821b604482015260640161050d565b60006111ea826040518060400160405280602081526020017f5361666545524332303a206c6f772d6c6576656c2063616c6c206661696c6564815250856001600160a01b03166115789092919063ffffffff16565b905080516000148061120b57508080602001905181019061120b9190611e14565b6105ae5760405162461bcd60e51b815260206004820152602a60248201527f5361666545524332303a204552433230206f7065726174696f6e20646964206e6044820152691bdd081cdd58d8d9595960b21b606482015260840161050d565b60006001600160a01b0384163b1561136057604051630a85bd0160e11b81526001600160a01b0385169063150b7a02906112ae903390899088908890600401611e31565b6020604051808303816000875af19250505080156112e9575060408051601f3d908101601f191682019092526112e691810190611e6e565b60015b611346573d808015611317576040519150601f19603f3d011682016040523d82523d6000602084013e61131c565b606091505b50805160000361133e5760405162461bcd60e51b815260040161050d90611d93565b805181602001fd5b6001600160e01b031916630a85bd0160e11b149050610a6c565b506001949350505050565b606061137682610928565b600061138d60408051602081019091526000815290565b905060008151116113ad57604051806020016040528060008152506113d8565b806113b784611587565b6040516020016113c8929190611de5565b6040516020818303038152906040525b9392505050565b6001600160a01b0382166114355760405162461bcd60e51b815260206004820181905260248201527f4552433732313a206d696e7420746f20746865207a65726f2061646472657373604482015260640161050d565b6000818152600260205260409020546001600160a01b03161561149a5760405162461bcd60e51b815260206004820152601c60248201527f4552433732313a20746f6b656e20616c7265616479206d696e74656400000000604482015260640161050d565b6114a86000838360016110c6565b6000818152600260205260409020546001600160a01b03161561150d5760405162461bcd60e51b815260206004820152601c60248201527f4552433732313a20746f6b656e20616c7265616479206d696e74656400000000604482015260640161050d565b6001600160a01b038216600081815260036020908152604080832080546001019055848352600290915280822080546001600160a01b0319168417905551839291907fddf252ad1be2c89b69c2b068fc378daa952ba7f163c4a11628f55a4df523b3ef908290a45050565b6060610a6c848460008561161a565b60606000611594836116f5565b600101905060008167ffffffffffffffff8111156115b4576115b461199c565b6040519080825280601f01601f1916602001820160405280156115de576020820181803683370190505b5090508181016020015b600019016f181899199a1a9b1b9c1cb0b131b232b360811b600a86061a8153600a85049450846115e857509392505050565b60608247101561167b5760405162461bcd60e51b815260206004820152602660248201527f416464726573733a20696e73756666696369656e742062616c616e636520666f6044820152651c8818d85b1b60d21b606482015260840161050d565b600080866001600160a01b031685876040516116979190611e8b565b60006040518083038185875af1925050503d80600081146116d4576040519150601f19603f3d011682016040523d82523d6000602084013e6116d9565b606091505b50915091506116ea878383876117cd565b979650505050505050565b60008072184f03e93ff9f4daa797ed6e38ed64bf6a1f0160401b83106117345772184f03e93ff9f4daa797ed6e38ed64bf6a1f0160401b830492506040015b6d04ee2d6d415b85acef81000000008310611760576d04ee2d6d415b85acef8100000000830492506020015b662386f26fc10000831061177e57662386f26fc10000830492506010015b6305f5e1008310611796576305f5e100830492506008015b61271083106117aa57612710830492506004015b606483106117bc576064830492506002015b600a83106103da5760010192915050565b6060831561183c578251600003611835576001600160a01b0385163b6118355760405162461bcd60e51b815260206004820152601d60248201527f416464726573733a2063616c6c20746f206e6f6e2d636f6e7472616374000000604482015260640161050d565b5081610a6c565b610a6c83838151156118515781518083602001fd5b8060405162461bcd60e51b815260040161050d91906118ee565b6001600160e01b03198116811461090057600080fd5b60006020828403121561189357600080fd5b81356113d88161186b565b60005b838110156118b95781810151838201526020016118a1565b50506000910152565b600081518084526118da81602086016020860161189e565b601f01601f19169290920160200192915050565b6020815260006113d860208301846118c2565b60006020828403121561191357600080fd5b5035919050565b80356001600160a01b038116811461193157600080fd5b919050565b6000806040838503121561194957600080fd5b6119528361191a565b946020939093013593505050565b60008060006060848603121561197557600080fd5b61197e8461191a565b925061198c6020850161191a565b9150604084013590509250925092565b634e487b7160e01b600052604160045260246000fd5b600067ffffffffffffffff808411156119cd576119cd61199c565b604051601f8501601f19908116603f011681019082821181831017156119f5576119f561199c565b81604052809350858152868686011115611a0e57600080fd5b858560208301376000602087830101525050509392505050565b60008060408385031215611a3b57600080fd5b823567ffffffffffffffff811115611a5257600080fd5b8301601f81018513611a6357600080fd5b611a72858235602084016119b2565b925050611a816020840161191a565b90509250929050565b600060208284031215611a9c57600080fd5b6113d88261191a565b801515811461090057600080fd5b60008060408385031215611ac657600080fd5b611acf8361191a565b91506020830135611adf81611aa5565b809150509250929050565b60008060008060808587031215611b0057600080fd5b611b098561191a565b9350611b176020860161191a565b925060408501359150606085013567ffffffffffffffff811115611b3a57600080fd5b8501601f81018713611b4b57600080fd5b611b5a878235602084016119b2565b91505092959194509250565b60008060408385031215611b7957600080fd5b611b828361191a565b9150611a816020840161191a565b600181811c90821680611ba457607f821691505b602082108103611bc457634e487b7160e01b600052602260045260246000fd5b50919050565b6020808252602d908201527f4552433732313a2063616c6c6572206973206e6f7420746f6b656e206f776e6560408201526c1c881bdc88185c1c1c9bdd9959609a1b606082015260800190565b600060018201611c3757634e487b7160e01b600052601160045260246000fd5b5060010190565b60208082526025908201527f4552433732313a207472616e736665722066726f6d20696e636f72726563742060408201526437bbb732b960d91b606082015260800190565b601f8211156105ae576000816000526020600020601f850160051c81016020861015611cac5750805b601f850160051c820191505b81811015611ccb57828155600101611cb8565b505050505050565b815167ffffffffffffffff811115611ced57611ced61199c565b611d0181611cfb8454611b90565b84611c83565b602080601f831160018114611d365760008415611d1e5750858301515b600019600386901b1c1916600185901b178555611ccb565b600085815260208120601f198616915b82811015611d6557888601518255948401946001909101908401611d46565b5085821015611d835787850151600019600388901b60f8161c191681555b5050505050600190811b01905550565b60208082526032908201527f4552433732313a207472616e7366657220746f206e6f6e20455243373231526560408201527131b2b4bb32b91034b6b83632b6b2b73a32b960711b606082015260800190565b60008351611df781846020880161189e565b835190830190611e0b81836020880161189e565b01949350505050565b600060208284031215611e2657600080fd5b81516113d881611aa5565b6001600160a01b0385811682528416602082015260408101839052608060608201819052600090611e64908301846118c2565b9695505050505050565b600060208284031215611e8057600080fd5b81516113d88161186b565b60008251611e9d81846020870161189e565b919091019291505056fea2646970667358221220b676f4cbc82949e0547680faacae313f7a28e384d10b9a13754f5c235de6703e64736f6c63430008180033",
  "linkReferences": {},
  "deployedLinkReferences": {}
}